{
  "contractName": "Grape",
  "abi": [
    {
      "constant": false,
      "inputs": [
        {
          "name": "_isPossibleAuction",
          "type": "bool"
        },
        {
          "name": "_ticketTypeCounts",
          "type": "uint256"
        },
        {
          "name": "_ticketName",
          "type": "string[]"
        },
        {
          "name": "_ticketPrice",
          "type": "uint256[]"
        },
        {
          "name": "_ticketDescription",
          "type": "string[]"
        },
        {
          "name": "_ticketAmount",
          "type": "uint256[]"
        }
      ],
      "name": "createConcert",
      "outputs": [
        {
          "name": "concertID",
          "type": "uint256"
        }
      ],
      "payable": true,
      "stateMutability": "payable",
      "type": "function"
    },
    {
      "constant": true,
      "inputs": [
        {
          "name": "_concertId",
          "type": "uint256"
        }
      ],
      "name": "getConcert",
      "outputs": [
        {
          "name": "_creator",
          "type": "address"
        },
        {
          "name": "_ticketTypeCounts",
          "type": "uint256"
        },
        {
          "name": "_ticketName",
          "type": "string[]"
        },
        {
          "name": "_ticketPrice",
          "type": "uint256[]"
        },
        {
          "name": "_ticketDescription",
          "type": "string[]"
        },
        {
          "name": "_ticketAmount",
          "type": "uint256[]"
        },
        {
          "name": "_isPossibleAuction",
          "type": "bool"
        },
        {
          "name": "_ticketListCount",
          "type": "uint256"
        }
      ],
      "payable": false,
      "stateMutability": "view",
      "type": "function"
    },
    {
      "constant": true,
      "inputs": [],
      "name": "getconcertID",
      "outputs": [
        {
          "name": "_concertID",
          "type": "uint256"
        }
      ],
      "payable": false,
      "stateMutability": "view",
      "type": "function"
    },
    {
      "constant": false,
      "inputs": [
        {
          "name": "_concertId",
          "type": "uint256"
        },
        {
          "name": "_ticketType",
          "type": "uint256"
        }
      ],
      "name": "payTicekt",
      "outputs": [],
      "payable": true,
      "stateMutability": "payable",
      "type": "function"
    }
  ],
  "bytecode": "0x60806040526000805534801561001457600080fd5b506110cf806100246000396000f300608060405260043610610062576000357c0100000000000000000000000000000000000000000000000000000000900463ffffffff1680634c777d64146100675780634ef7ca551461008357806353e5ddd0146100c757806374fe878d146100f7575b600080fd5b610081600480360361007c9190810190610cdb565b610122565b005b34801561008f57600080fd5b506100aa60048036036100a59190810190610cb2565b61039d565b6040516100be989796959493929190610e43565b60405180910390f35b6100e160048036036100dc9190810190610bc9565b610703565b6040516100ee9190610edd565b60405180910390f35b34801561010357600080fd5b5061010c610881565b6040516101199190610edd565b60405180910390f35b6001600083815260200190815260200160002060010160009054906101000a900473ffffffffffffffffffffffffffffffffffffffff1673ffffffffffffffffffffffffffffffffffffffff166108fc600160008581526020019081526020016000206004018381548110151561019557fe5b90600052602060002001549081150290604051600060405180830381858888f193505050501580156101cb573d6000803e3d6000fd5b50816001600084815260200190815260200160002060080160006001600086815260200190815260200160002060070154815260200190815260200160002060000181905550336001600084815260200190815260200160002060080160006001600086815260200190815260200160002060070154815260200190815260200160002060010160006101000a81548173ffffffffffffffffffffffffffffffffffffffff021916908373ffffffffffffffffffffffffffffffffffffffff16021790555080600160008481526020019081526020016000206008016000600160008681526020019081526020016000206007015481526020019081526020016000206002018190555042600160008481526020019081526020016000206008016000600160008681526020019081526020016000206007015481526020019081526020016000206003018190555060006001600084815260200190815260200160002060080160006001600086815260200190815260200160002060070154815260200190815260200160002060050160006101000a81548160ff02191690831515021790555060016000838152602001908152602001600020600701600081548092919060010191905055505050565b600080606080606080600080600160008a815260200190815260200160002060010160009054906101000a900473ffffffffffffffffffffffffffffffffffffffff169750600160008a815260200190815260200160002060010160149054906101000a900460ff169150600160008a8152602001908152602001600020600701549050600160008a8152602001908152602001600020600201549650600160008a8152602001908152602001600020600301805480602002602001604051908101604052809291908181526020016000905b8282101561052c578382906000526020600020018054600181600116156101000203166002900480601f0160208091040260200160405190810160405280929190818152602001828054600181600116156101000203166002900480156105185780601f106104ed57610100808354040283529160200191610518565b820191906000526020600020905b8154815290600101906020018083116104fb57829003601f168201915b505050505081526020019060010190610470565b505050509550600160008a815260200190815260200160002060040180548060200260200160405190810160405280929190818152602001828054801561059257602002820191906000526020600020905b81548152602001906001019080831161057e575b50505050509450600160008a8152602001908152602001600020600501805480602002602001604051908101604052809291908181526020016000905b8282101561068b578382906000526020600020018054600181600116156101000203166002900480601f0160208091040260200160405190810160405280929190818152602001828054600181600116156101000203166002900480156106775780601f1061064c57610100808354040283529160200191610677565b820191906000526020600020905b81548152906001019060200180831161065a57829003601f168201915b5050505050815260200190600101906105cf565b505050509350600160008a81526020019081526020016000206006018054806020026020016040519081016040528092919081815260200182805480156106f157602002820191906000526020600020905b8154815260200190600101908083116106dd575b50505050509250919395975091939597565b6000610120604051908101604052808281526020013373ffffffffffffffffffffffffffffffffffffffff16815260200188151581526020018781526020018681526020018581526020018481526020018381526020016000815250600160008381526020019081526020016000206000820151816000015560208201518160010160006101000a81548173ffffffffffffffffffffffffffffffffffffffff021916908373ffffffffffffffffffffffffffffffffffffffff16021790555060408201518160010160146101000a81548160ff02191690831515021790555060608201518160020155608082015181600301908051906020019061080992919061088a565b5060a08201518160040190805190602001906108269291906108ea565b5060c082015181600501908051906020019061084392919061088a565b5060e08201518160060190805190602001906108609291906108ea565b50610100820151816007015590505080806001019150509695505050505050565b60008054905090565b8280548282559060005260206000209081019282156108d9579160200282015b828111156108d85782518290805190602001906108c8929190610937565b50916020019190600101906108aa565b5b5090506108e691906109b7565b5090565b828054828255906000526020600020908101928215610926579160200282015b8281111561092557825182559160200191906001019061090a565b5b50905061093391906109e3565b5090565b828054600181600116156101000203166002900490600052602060002090601f016020900481019282601f1061097857805160ff19168380011785556109a6565b828001600101855582156109a6579182015b828111156109a557825182559160200191906001019061098a565b5b5090506109b391906109e3565b5090565b6109e091905b808211156109dc57600081816109d39190610a08565b506001016109bd565b5090565b90565b610a0591905b80821115610a015760008160009055506001016109e9565b5090565b90565b50805460018160011615610100020316600290046000825580601f10610a2e5750610a4d565b601f016020900490600052602060002090810190610a4c91906109e3565b5b50565b600082601f8301121515610a6357600080fd5b8135610a76610a7182610f25565b610ef8565b9150818183526020840193506020810190508360005b83811015610abc5781358601610aa28882610b5f565b845260208401935060208301925050600181019050610a8c565b5050505092915050565b600082601f8301121515610ad957600080fd5b8135610aec610ae782610f4d565b610ef8565b91508181835260208401935060208101905083856020840282011115610b1157600080fd5b60005b83811015610b415781610b278882610bb5565b845260208401935060208301925050600181019050610b14565b5050505092915050565b6000610b57823561102c565b905092915050565b600082601f8301121515610b7257600080fd5b8135610b85610b8082610f75565b610ef8565b91508082526020830160208301858383011115610ba157600080fd5b610bac838284611042565b50505092915050565b6000610bc18235611038565b905092915050565b60008060008060008060c08789031215610be257600080fd5b6000610bf089828a01610b4b565b9650506020610c0189828a01610bb5565b955050604087013567ffffffffffffffff811115610c1e57600080fd5b610c2a89828a01610a50565b945050606087013567ffffffffffffffff811115610c4757600080fd5b610c5389828a01610ac6565b935050608087013567ffffffffffffffff811115610c7057600080fd5b610c7c89828a01610a50565b92505060a087013567ffffffffffffffff811115610c9957600080fd5b610ca589828a01610ac6565b9150509295509295509295565b600060208284031215610cc457600080fd5b6000610cd284828501610bb5565b91505092915050565b60008060408385031215610cee57600080fd5b6000610cfc85828601610bb5565b9250506020610d0d85828601610bb5565b9150509250929050565b610d2081610ff6565b82525050565b6000610d3182610fbb565b80845260208401935083602082028501610d4a85610fa1565b60005b84811015610d83578383038852610d65838351610dfe565b9250610d7082610fdc565b9150602088019750600181019050610d4d565b508196508694505050505092915050565b6000610d9f82610fc6565b808452602084019350610db183610fae565b60005b82811015610de357610dc7868351610e34565b610dd082610fe9565b9150602086019550600181019050610db4565b50849250505092915050565b610df881611016565b82525050565b6000610e0982610fd1565b808452610e1d816020860160208601611051565b610e2681611084565b602085010191505092915050565b610e3d81611022565b82525050565b600061010082019050610e59600083018b610d17565b610e66602083018a610e34565b8181036040830152610e788189610d26565b90508181036060830152610e8c8188610d94565b90508181036080830152610ea08187610d26565b905081810360a0830152610eb48186610d94565b9050610ec360c0830185610def565b610ed060e0830184610e34565b9998505050505050505050565b6000602082019050610ef26000830184610e34565b92915050565b6000604051905081810181811067ffffffffffffffff82111715610f1b57600080fd5b8060405250919050565b600067ffffffffffffffff821115610f3c57600080fd5b602082029050602081019050919050565b600067ffffffffffffffff821115610f6457600080fd5b602082029050602081019050919050565b600067ffffffffffffffff821115610f8c57600080fd5b601f19601f8301169050602081019050919050565b6000602082019050919050565b6000602082019050919050565b600081519050919050565b600081519050919050565b600081519050919050565b6000602082019050919050565b6000602082019050919050565b600073ffffffffffffffffffffffffffffffffffffffff82169050919050565b60008115159050919050565b6000819050919050565b60008115159050919050565b6000819050919050565b82818337600083830152505050565b60005b8381101561106f578082015181840152602081019050611054565b8381111561107e576000848401525b50505050565b6000601f19601f83011690509190505600a265627a7a72305820b5b401105719cde6e0c88eed6fe1a1daea133f0f8a2ad600d6a3a5949b6b0dfc6c6578706572696d656e74616cf50037",
  "source": "pragma solidity ^0.4.23;\npragma experimental ABIEncoderV2;\n\ncontract Grape {\n    uint256 concertID = 0;\n\n    modifier isOwner(address user){\n        require(msg.sender == user, \"Authorization Failed\");\n        _;\n    }\n\n    modifier isTimeEnd(uint time){\n        require(time < now, \"Time is end\");\n        _;\n    }\n\n    modifier isAuction(uint256 _ticketId, uint256 _concertId){\n        require(concertList[_concertId].ticketList[_ticketId].isAuction == true, \"Not Auction\");\n        _;\n    }\n\n    struct Concert {\n        uint256 concertId;\n        address creator;\n        bool isPossibleAuction;\n        uint256 ticketTypeCounts;\n        string[] ticketName;\n        uint256[] ticketPrice;\n        string[] ticketDescription;\n        uint256[] ticketAmount;\n        uint256 ticketListCount;\n        mapping (uint256 => Ticket) ticketList;\n    }\n\n    mapping (uint256 => Concert) concertList;\n\n    struct Ticket {\n        uint256 concertId;\n        address owner;\n        uint256 ticketType;\n        uint256 date;\n        string auctionHistorys;\n        bool isAuction;\n    }\n\n    function createConcert(bool _isPossibleAuction,\n    uint256 _ticketTypeCounts, string[] _ticketName, uint256[] _ticketPrice, string[] _ticketDescription, uint256[] _ticketAmount) \n    public payable returns(uint256 concertID){\n        concertList[concertID] = (Concert(concertID, msg.sender, _isPossibleAuction, _ticketTypeCounts, _ticketName, _ticketPrice, _ticketDescription, _ticketAmount, 0));\n        concertID++;\n    }\n\n    function getConcert(uint256 _concertId) public view returns (\n        address _creator,\n        uint256 _ticketTypeCounts,\n        string[] _ticketName,\n        uint256[] _ticketPrice,\n        string[] _ticketDescription,\n        uint256[] _ticketAmount,\n        bool _isPossibleAuction,\n        uint256 _ticketListCount\n    )\n    {\n        _creator = concertList[_concertId].creator;\n        _isPossibleAuction = concertList[_concertId].isPossibleAuction;\n        _ticketListCount = concertList[_concertId].ticketListCount;\n        _ticketTypeCounts = concertList[_concertId].ticketTypeCounts;\n        _ticketName = concertList[_concertId].ticketName;\n        _ticketPrice = concertList[_concertId].ticketPrice;\n        _ticketDescription = concertList[_concertId].ticketDescription;\n        _ticketAmount = concertList[_concertId].ticketAmount;\n    }\n\n    function getconcertID() public view returns (\n        uint256 _concertID\n    ) {\n        _concertID = concertID;\n    }\n\n    function payTicekt(uint256 _concertId, uint256 _ticketType) public payable {\n        concertList[_concertId].creator.transfer(concertList[_concertId].ticketPrice[_ticketType]);\n        concertList[_concertId].ticketList[concertList[_concertId].ticketListCount].concertId = _concertId;\n        concertList[_concertId].ticketList[concertList[_concertId].ticketListCount].owner = msg.sender;\n        concertList[_concertId].ticketList[concertList[_concertId].ticketListCount].ticketType = _ticketType;\n        concertList[_concertId].ticketList[concertList[_concertId].ticketListCount].date = block.timestamp;\n        concertList[_concertId].ticketList[concertList[_concertId].ticketListCount].isAuction = false;\n        concertList[_concertId].ticketListCount++;\n    }\n}",
  "sourcePath": "/Users/Gwangmin/Documents/klaytn-web/contracts/Grape.sol",
  "compiler": {
    "name": "solc",
    "version": "0.4.24+commit.e67f0147.Emscripten.clang"
  },
  "schemaVersion": "2.0.1",
  "updatedAt": "2018-10-27T02:36:34.458Z"
}