{
  "contractName": "Grape",
  "abi": [
    {
      "constant": false,
      "inputs": [
        {
          "name": "_isPossibleAuction",
          "type": "bool"
        },
        {
          "name": "_ticketTypeCounts",
          "type": "uint256"
        },
        {
          "name": "_ticketName",
          "type": "string[]"
        },
        {
          "name": "_ticketPrice",
          "type": "uint256[]"
        },
        {
          "name": "_ticketDescription",
          "type": "string[]"
        },
        {
          "name": "_ticketAmount",
          "type": "uint256[]"
        }
      ],
      "name": "createConcert",
      "outputs": [
        {
          "name": "concertID",
          "type": "uint256"
        }
      ],
      "payable": true,
      "stateMutability": "payable",
      "type": "function"
    },
    {
      "constant": true,
      "inputs": [
        {
          "name": "_concertId",
          "type": "uint256"
        }
      ],
      "name": "getConcert",
      "outputs": [
        {
          "name": "_creator",
          "type": "address"
        },
        {
          "name": "_ticketTypeCounts",
          "type": "uint256"
        },
        {
          "name": "_ticketName",
          "type": "string[]"
        },
        {
          "name": "_ticketPrice",
          "type": "uint256[]"
        },
        {
          "name": "_ticketDescription",
          "type": "string[]"
        },
        {
          "name": "_ticketAmount",
          "type": "uint256[]"
        },
        {
          "name": "_isPossibleAuction",
          "type": "bool"
        },
        {
          "name": "_ticketListCount",
          "type": "uint256"
        }
      ],
      "payable": false,
      "stateMutability": "view",
      "type": "function"
    },
    {
      "constant": true,
      "inputs": [],
      "name": "getconcertID",
      "outputs": [
        {
          "name": "_concertID",
          "type": "uint256"
        }
      ],
      "payable": false,
      "stateMutability": "view",
      "type": "function"
    },
    {
      "constant": false,
      "inputs": [
        {
          "name": "_concertId",
          "type": "uint256"
        },
        {
          "name": "_ticketType",
          "type": "uint256"
        }
      ],
      "name": "payTicekt",
      "outputs": [],
      "payable": true,
      "stateMutability": "payable",
      "type": "function"
    },
    {
      "constant": false,
      "inputs": [
        {
          "name": "_concertId",
          "type": "uint256"
        },
        {
          "name": "_ticketType",
          "type": "uint256"
        }
      ],
      "name": "buyUsedTicket",
      "outputs": [],
      "payable": true,
      "stateMutability": "payable",
      "type": "function"
    },
    {
      "constant": false,
      "inputs": [
        {
          "name": "_concertId",
          "type": "uint256"
        },
        {
          "name": "_ticketType",
          "type": "uint256"
        }
      ],
      "name": "sellUsedTicket",
      "outputs": [],
      "payable": true,
      "stateMutability": "payable",
      "type": "function"
    },
    {
      "constant": false,
      "inputs": [
        {
          "name": "_concertId",
          "type": "uint256"
        },
        {
          "name": "_ticketType",
          "type": "uint256"
        }
      ],
      "name": "cancleSellUsedTicket",
      "outputs": [],
      "payable": true,
      "stateMutability": "payable",
      "type": "function"
    }
  ],
  "bytecode": "0x60806040526000805534801561001457600080fd5b50611ae4806100246000396000f300608060405260043610610083576000357c0100000000000000000000000000000000000000000000000000000000900463ffffffff1680634c777d64146100885780634ef7ca55146100a457806353e5ddd0146100e85780635e09f30a1461011857806374fe878d146101345780638dad280d1461015f578063c964fba21461017b575b600080fd5b6100a2600480360361009d91908101906116f0565b610197565b005b3480156100b057600080fd5b506100cb60048036036100c691908101906116c7565b610458565b6040516100df989796959493929190611858565b60405180910390f35b61010260048036036100fd91908101906115de565b6107be565b60405161010f91906118f2565b60405180910390f35b610132600480360361012d91908101906116f0565b61099d565b005b34801561014057600080fd5b50610149610b92565b60405161015691906118f2565b60405180910390f35b610179600480360361017491908101906116f0565b610b9b565b005b610195600480360361019091908101906116f0565b610d8f565b005b6001600083815260200190815260200160002060010160009054906101000a900473ffffffffffffffffffffffffffffffffffffffff1673ffffffffffffffffffffffffffffffffffffffff166108fc600160008581526020019081526020016000206004018381548110151561020a57fe5b90600052602060002001549081150290604051600060405180830381858888f19350505050158015610240573d6000803e3d6000fd5b50816001600084815260200190815260200160002060080160006001600086815260200190815260200160002060070154815260200190815260200160002060000181905550336001600084815260200190815260200160002060080160006001600086815260200190815260200160002060070154815260200190815260200160002060010160006101000a81548173ffffffffffffffffffffffffffffffffffffffff021916908373ffffffffffffffffffffffffffffffffffffffff16021790555080600160008481526020019081526020016000206008016000600160008681526020019081526020016000206007015481526020019081526020016000206002018190555042600160008481526020019081526020016000206008016000600160008681526020019081526020016000206007015481526020019081526020016000206003018190555060006001600084815260200190815260200160002060080160006001600086815260200190815260200160002060070154815260200190815260200160002060060160006101000a81548160ff0219169083151502179055506000600160008481526020019081526020016000206008016000600160008681526020019081526020016000206007015481526020019081526020016000206004018190555060016000838152602001908152602001600020600701600081548092919060010191905055505050565b600080606080606080600080600160008a815260200190815260200160002060010160009054906101000a900473ffffffffffffffffffffffffffffffffffffffff169750600160008a815260200190815260200160002060010160149054906101000a900460ff169150600160008a8152602001908152602001600020600701549050600160008a8152602001908152602001600020600201549650600160008a8152602001908152602001600020600301805480602002602001604051908101604052809291908181526020016000905b828210156105e7578382906000526020600020018054600181600116156101000203166002900480601f0160208091040260200160405190810160405280929190818152602001828054600181600116156101000203166002900480156105d35780601f106105a8576101008083540402835291602001916105d3565b820191906000526020600020905b8154815290600101906020018083116105b657829003601f168201915b50505050508152602001906001019061052b565b505050509550600160008a815260200190815260200160002060040180548060200260200160405190810160405280929190818152602001828054801561064d57602002820191906000526020600020905b815481526020019060010190808311610639575b50505050509450600160008a8152602001908152602001600020600501805480602002602001604051908101604052809291908181526020016000905b82821015610746578382906000526020600020018054600181600116156101000203166002900480601f0160208091040260200160405190810160405280929190818152602001828054600181600116156101000203166002900480156107325780601f1061070757610100808354040283529160200191610732565b820191906000526020600020905b81548152906001019060200180831161071557829003601f168201915b50505050508152602001906001019061068a565b505050509350600160008a81526020019081526020016000206006018054806020026020016040519081016040528092919081815260200182805480156107ac57602002820191906000526020600020905b815481526020019060010190808311610798575b50505050509250919395975091939597565b60008073c39b1048d6dd7fb500a2e8f9fffa0ca33cd4db5a90508073ffffffffffffffffffffffffffffffffffffffff166108fc60149081150290604051600060405180830381858888f1935050505015801561081f573d6000803e3d6000fd5b50610120604051908101604052808381526020013373ffffffffffffffffffffffffffffffffffffffff16815260200189151581526020018881526020018781526020018681526020018581526020018481526020016000815250600160008481526020019081526020016000206000820151816000015560208201518160010160006101000a81548173ffffffffffffffffffffffffffffffffffffffff021916908373ffffffffffffffffffffffffffffffffffffffff16021790555060408201518160010160146101000a81548160ff02191690831515021790555060608201518160020155608082015181600301908051906020019061092492919061129f565b5060a08201518160040190805190602001906109419291906112ff565b5060c082015181600501908051906020019061095e92919061129f565b5060e082015181600601908051906020019061097b9291906112ff565b5061010082015181600701559050508180600101925050509695505050505050565b60008090505b6001600084815260200190815260200160002060070154811015610b8d573373ffffffffffffffffffffffffffffffffffffffff1660016000858152602001908152602001600020600801600083815260200190815260200160002060010160009054906101000a900473ffffffffffffffffffffffffffffffffffffffff1673ffffffffffffffffffffffffffffffffffffffff16148015610a7b575060016000848152602001908152602001600020600801600082815260200190815260200160002060060160009054906101000a900460ff16155b15610b80576001600084815260200190815260200160002060010160009054906101000a900473ffffffffffffffffffffffffffffffffffffffff1673ffffffffffffffffffffffffffffffffffffffff166108fc600a600180600088815260200190815260200160002060040186815481101515610af657fe5b906000526020600020015402811515610b0b57fe5b049081150290604051600060405180830381858888f19350505050158015610b37573d6000803e3d6000fd5b50600060016000858152602001908152602001600020600801600083815260200190815260200160002060060160006101000a81548160ff021916908315150217905550610b8d565b80806001019150506109a3565b505050565b60008054905090565b60008090505b6001600084815260200190815260200160002060070154811015610d8a573373ffffffffffffffffffffffffffffffffffffffff1660016000858152602001908152602001600020600801600083815260200190815260200160002060010160009054906101000a900473ffffffffffffffffffffffffffffffffffffffff1673ffffffffffffffffffffffffffffffffffffffff16148015610c79575060016000848152602001908152602001600020600801600082815260200190815260200160002060060160009054906101000a900460ff16155b15610d7d576001600084815260200190815260200160002060010160009054906101000a900473ffffffffffffffffffffffffffffffffffffffff1673ffffffffffffffffffffffffffffffffffffffff166108fc600a600180600088815260200190815260200160002060040186815481101515610cf457fe5b906000526020600020015402811515610d0957fe5b049081150290604051600060405180830381858888f19350505050158015610d35573d6000803e3d6000fd5b506001806000858152602001908152602001600020600801600083815260200190815260200160002060060160006101000a81548160ff021916908315150217905550610d8a565b8080600101915050610ba1565b505050565b60008090505b600160008481526020019081526020016000206007015481101561129a578160016000858152602001908152602001600020600801600083815260200190815260200160002060020154148015610e20575060016000848152602001908152602001600020600801600082815260200190815260200160002060060160009054906101000a900460ff165b1561128d5760016000848152602001908152602001600020600801600082815260200190815260200160002060010160009054906101000a900473ffffffffffffffffffffffffffffffffffffffff1673ffffffffffffffffffffffffffffffffffffffff166108fc6001600086815260200190815260200160002060040184815481101515610eac57fe5b90600052602060002001549081150290604051600060405180830381858888f19350505050158015610ee2573d6000803e3d6000fd5b506001600084815260200190815260200160002060010160009054906101000a900473ffffffffffffffffffffffffffffffffffffffff1673ffffffffffffffffffffffffffffffffffffffff166108fc600a600180600088815260200190815260200160002060040186815481101515610f5957fe5b906000526020600020015402811515610f6e57fe5b049081150290604051600060405180830381858888f19350505050158015610f9a573d6000803e3d6000fd5b50600060016000858152602001908152602001600020600801600083815260200190815260200160002060060160006101000a81548160ff0219169083151502179055504260016000858152602001908152602001600020600801600083815260200190815260200160002060050160006001600087815260200190815260200160002060080160008581526020019081526020016000206004015481526020019081526020016000206000018190555060016000848152602001908152602001600020600801600082815260200190815260200160002060010160009054906101000a900473ffffffffffffffffffffffffffffffffffffffff16600160008581526020019081526020016000206008016000838152602001908152602001600020600501600060016000878152602001908152602001600020600801600085815260200190815260200160002060040154815260200190815260200160002060010160006101000a81548173ffffffffffffffffffffffffffffffffffffffff021916908373ffffffffffffffffffffffffffffffffffffffff160217905550600a600b600160008681526020019081526020016000206004018481548110151561116357fe5b90600052602060002001540281151561117857fe5b04600160008581526020019081526020016000206008016000838152602001908152602001600020600501600060016000878152602001908152602001600020600801600085815260200190815260200160002060040154815260200190815260200160002060020181905550600160008481526020019081526020016000206008016000828152602001908152602001600020600401600081548092919060010191905055503360016000858152602001908152602001600020600801600083815260200190815260200160002060010160006101000a81548173ffffffffffffffffffffffffffffffffffffffff021916908373ffffffffffffffffffffffffffffffffffffffff16021790555061129a565b8080600101915050610d95565b505050565b8280548282559060005260206000209081019282156112ee579160200282015b828111156112ed5782518290805190602001906112dd92919061134c565b50916020019190600101906112bf565b5b5090506112fb91906113cc565b5090565b82805482825590600052602060002090810192821561133b579160200282015b8281111561133a57825182559160200191906001019061131f565b5b50905061134891906113f8565b5090565b828054600181600116156101000203166002900490600052602060002090601f016020900481019282601f1061138d57805160ff19168380011785556113bb565b828001600101855582156113bb579182015b828111156113ba57825182559160200191906001019061139f565b5b5090506113c891906113f8565b5090565b6113f591905b808211156113f157600081816113e8919061141d565b506001016113d2565b5090565b90565b61141a91905b808211156114165760008160009055506001016113fe565b5090565b90565b50805460018160011615610100020316600290046000825580601f106114435750611462565b601f01602090049060005260206000209081019061146191906113f8565b5b50565b600082601f830112151561147857600080fd5b813561148b6114868261193a565b61190d565b9150818183526020840193506020810190508360005b838110156114d157813586016114b78882611574565b8452602084019350602083019250506001810190506114a1565b5050505092915050565b600082601f83011215156114ee57600080fd5b81356115016114fc82611962565b61190d565b9150818183526020840193506020810190508385602084028201111561152657600080fd5b60005b83811015611556578161153c88826115ca565b845260208401935060208301925050600181019050611529565b5050505092915050565b600061156c8235611a41565b905092915050565b600082601f830112151561158757600080fd5b813561159a6115958261198a565b61190d565b915080825260208301602083018583830111156115b657600080fd5b6115c1838284611a57565b50505092915050565b60006115d68235611a4d565b905092915050565b60008060008060008060c087890312156115f757600080fd5b600061160589828a01611560565b965050602061161689828a016115ca565b955050604087013567ffffffffffffffff81111561163357600080fd5b61163f89828a01611465565b945050606087013567ffffffffffffffff81111561165c57600080fd5b61166889828a016114db565b935050608087013567ffffffffffffffff81111561168557600080fd5b61169189828a01611465565b92505060a087013567ffffffffffffffff8111156116ae57600080fd5b6116ba89828a016114db565b9150509295509295509295565b6000602082840312156116d957600080fd5b60006116e7848285016115ca565b91505092915050565b6000806040838503121561170357600080fd5b6000611711858286016115ca565b9250506020611722858286016115ca565b9150509250929050565b61173581611a0b565b82525050565b6000611746826119d0565b8084526020840193508360208202850161175f856119b6565b60005b8481101561179857838303885261177a838351611813565b9250611785826119f1565b9150602088019750600181019050611762565b508196508694505050505092915050565b60006117b4826119db565b8084526020840193506117c6836119c3565b60005b828110156117f8576117dc868351611849565b6117e5826119fe565b91506020860195506001810190506117c9565b50849250505092915050565b61180d81611a2b565b82525050565b600061181e826119e6565b808452611832816020860160208601611a66565b61183b81611a99565b602085010191505092915050565b61185281611a37565b82525050565b60006101008201905061186e600083018b61172c565b61187b602083018a611849565b818103604083015261188d818961173b565b905081810360608301526118a181886117a9565b905081810360808301526118b5818761173b565b905081810360a08301526118c981866117a9565b90506118d860c0830185611804565b6118e560e0830184611849565b9998505050505050505050565b60006020820190506119076000830184611849565b92915050565b6000604051905081810181811067ffffffffffffffff8211171561193057600080fd5b8060405250919050565b600067ffffffffffffffff82111561195157600080fd5b602082029050602081019050919050565b600067ffffffffffffffff82111561197957600080fd5b602082029050602081019050919050565b600067ffffffffffffffff8211156119a157600080fd5b601f19601f8301169050602081019050919050565b6000602082019050919050565b6000602082019050919050565b600081519050919050565b600081519050919050565b600081519050919050565b6000602082019050919050565b6000602082019050919050565b600073ffffffffffffffffffffffffffffffffffffffff82169050919050565b60008115159050919050565b6000819050919050565b60008115159050919050565b6000819050919050565b82818337600083830152505050565b60005b83811015611a84578082015181840152602081019050611a69565b83811115611a93576000848401525b50505050565b6000601f19601f83011690509190505600a265627a7a72305820f20695c4b1ff55fb205715e08cdda118ef602bef31324976fe122e04a1d37d2e6c6578706572696d656e74616cf50037",
  "source": "pragma solidity ^0.4.23;\npragma experimental ABIEncoderV2;\n\ncontract Grape {\n    uint256 concertID = 0;\n\n    modifier isOwner(address user){\n        require(msg.sender == user, \"Authorization Failed\");\n        _;\n    }\n\n    modifier isTimeEnd(uint time){\n        require(time < now, \"Time is end\");\n        _;\n    }\n\n    modifier isAuction(uint256 _ticketId, uint256 _concertId){\n        require(concertList[_concertId].ticketList[_ticketId].isAuction == true, \"Not Auction\");\n        _;\n    }\n\n    struct Concert {\n        uint256 concertId;\n        address creator;\n        bool isPossibleAuction;\n        uint256 ticketTypeCounts;\n        string[] ticketName;\n        uint256[] ticketPrice;\n        string[] ticketDescription;\n        uint256[] ticketAmount;\n        uint256 ticketListCount;\n        mapping (uint256 => Ticket) ticketList;\n    }\n\n    mapping (uint256 => Concert) concertList;\n\n    struct Ticket {\n        uint256 concertId;\n        address owner;\n        uint256 ticketType;\n        uint256 date;\n        uint256 ticketHistoryCount;\n        mapping (uint256 => AuctionHistory) auctionHistorys;\n        bool isAuction;\n    }\n    \n    struct AuctionHistory {\n        uint256 date;\n        address owner;\n        uint256 price;\n    }\n\n    function createConcert(bool _isPossibleAuction,\n    uint256 _ticketTypeCounts, string[] _ticketName, uint256[] _ticketPrice, string[] _ticketDescription, uint256[] _ticketAmount) \n    public payable returns(uint256 concertID){\n        address foundation = 0xC39b1048d6DD7fB500A2E8F9fFFa0ca33cd4dB5a;\n        foundation.transfer(20);\n        concertList[concertID] = (Concert(concertID, msg.sender, _isPossibleAuction, _ticketTypeCounts, _ticketName, _ticketPrice, _ticketDescription, _ticketAmount, 0));\n        concertID++;\n    }\n\n    function getConcert(uint256 _concertId) public view returns (\n        address _creator,\n        uint256 _ticketTypeCounts,\n        string[] _ticketName,\n        uint256[] _ticketPrice,\n        string[] _ticketDescription,\n        uint256[] _ticketAmount,\n        bool _isPossibleAuction,\n        uint256 _ticketListCount\n    )\n    {\n        _creator = concertList[_concertId].creator;\n        _isPossibleAuction = concertList[_concertId].isPossibleAuction;\n        _ticketListCount = concertList[_concertId].ticketListCount;\n        _ticketTypeCounts = concertList[_concertId].ticketTypeCounts;\n        _ticketName = concertList[_concertId].ticketName;\n        _ticketPrice = concertList[_concertId].ticketPrice;\n        _ticketDescription = concertList[_concertId].ticketDescription;\n        _ticketAmount = concertList[_concertId].ticketAmount;\n    }\n\n    function getconcertID() public view returns (\n        uint256 _concertID\n    ) {\n        _concertID = concertID;\n    }\n\n    function payTicekt(uint256 _concertId, uint256 _ticketType) public payable {\n        concertList[_concertId].creator.transfer(concertList[_concertId].ticketPrice[_ticketType]);\n        concertList[_concertId].ticketList[concertList[_concertId].ticketListCount].concertId = _concertId;\n        concertList[_concertId].ticketList[concertList[_concertId].ticketListCount].owner = msg.sender;\n        concertList[_concertId].ticketList[concertList[_concertId].ticketListCount].ticketType = _ticketType;\n        concertList[_concertId].ticketList[concertList[_concertId].ticketListCount].date = block.timestamp;\n        concertList[_concertId].ticketList[concertList[_concertId].ticketListCount].isAuction = false;\n        concertList[_concertId].ticketList[concertList[_concertId].ticketListCount].ticketHistoryCount = 0;\n        concertList[_concertId].ticketListCount++;\n    }\n\n    function buyUsedTicket(uint256 _concertId, uint256 _ticketType) public payable {\n        for (uint256 i = 0; i < concertList[_concertId].ticketListCount; i++) {\n            if (concertList[_concertId].ticketList[i].ticketType == _ticketType && concertList[_concertId].ticketList[i].isAuction) {\n                concertList[_concertId].ticketList[i].owner.transfer(concertList[_concertId].ticketPrice[_ticketType]);\n                concertList[_concertId].creator.transfer(concertList[_concertId].ticketPrice[_ticketType] * 1 / 10);\n                concertList[_concertId].ticketList[i].isAuction = false;\n                concertList[_concertId].ticketList[i].auctionHistorys[concertList[_concertId].ticketList[i].ticketHistoryCount].date = block.timestamp;\n                concertList[_concertId].ticketList[i].auctionHistorys[concertList[_concertId].ticketList[i].ticketHistoryCount].owner = concertList[_concertId].ticketList[i].owner;\n                concertList[_concertId].ticketList[i].auctionHistorys[concertList[_concertId].ticketList[i].ticketHistoryCount].price = concertList[_concertId].ticketPrice[_ticketType] * 11 / 10;\n                concertList[_concertId].ticketList[i].ticketHistoryCount++;\n                concertList[_concertId].ticketList[i].owner = msg.sender;\n                break;\n            }\n        }\n    }\n    function sellUsedTicket(uint256 _concertId, uint256 _ticketType) public payable {\n        for (uint256 i = 0; i < concertList[_concertId].ticketListCount; i++) {\n            if (concertList[_concertId].ticketList[i].owner == msg.sender && !concertList[_concertId].ticketList[i].isAuction) {\n                concertList[_concertId].creator.transfer(concertList[_concertId].ticketPrice[_ticketType] * 1 / 10);\n                concertList[_concertId].ticketList[i].isAuction = true;\n                break;\n            }\n        }\n    }\n\n    function cancleSellUsedTicket(uint256 _concertId, uint256 _ticketType) public payable {\n        for (uint256 i = 0; i < concertList[_concertId].ticketListCount; i++) {\n            if (concertList[_concertId].ticketList[i].owner == msg.sender && !concertList[_concertId].ticketList[i].isAuction) {\n                concertList[_concertId].creator.transfer(concertList[_concertId].ticketPrice[_ticketType] * 1 / 10);\n                concertList[_concertId].ticketList[i].isAuction = false;\n                break;\n            }\n        }\n    }\n}",
  "sourcePath": "/Users/Gwangmin/Documents/klaytn-web/contracts/Grape.sol",
  "compiler": {
    "name": "solc",
    "version": "0.4.24+commit.e67f0147.Emscripten.clang"
  },
  "schemaVersion": "2.0.1",
  "updatedAt": "2018-10-27T04:26:07.321Z"
}