{
  "contractName": "Grape",
  "abi": [
    {
      "constant": false,
      "inputs": [
        {
          "name": "name",
          "type": "string"
        },
        {
          "name": "place",
          "type": "string"
        },
        {
          "name": "term",
          "type": "string"
        },
        {
          "name": "ownerName",
          "type": "string"
        },
        {
          "name": "ticketTypes",
          "type": "string"
        },
        {
          "name": "isPossibleAuction",
          "type": "bool"
        },
        {
          "name": "tags",
          "type": "string"
        }
      ],
      "name": "createConcert",
      "outputs": [
        {
          "name": "concertID",
          "type": "uint256"
        }
      ],
      "payable": true,
      "stateMutability": "payable",
      "type": "function"
    },
    {
      "constant": true,
      "inputs": [
        {
          "name": "concertId",
          "type": "uint256"
        }
      ],
      "name": "getConcert",
      "outputs": [
        {
          "name": "creator",
          "type": "address"
        },
        {
          "name": "name",
          "type": "string"
        },
        {
          "name": "place",
          "type": "string"
        },
        {
          "name": "term",
          "type": "string"
        },
        {
          "name": "ownerName",
          "type": "string"
        },
        {
          "name": "ticketTypes",
          "type": "string"
        },
        {
          "name": "isPossibleAuction",
          "type": "bool"
        },
        {
          "name": "tags",
          "type": "string"
        },
        {
          "name": "ticketListCount",
          "type": "uint256"
        }
      ],
      "payable": false,
      "stateMutability": "view",
      "type": "function"
    },
    {
      "constant": true,
      "inputs": [],
      "name": "getconcertID",
      "outputs": [
        {
          "name": "concertID",
          "type": "uint256"
        }
      ],
      "payable": false,
      "stateMutability": "view",
      "type": "function"
    }
  ],
  "bytecode": "0x608060405260008055600060015534801561001957600080fd5b50610c62806100296000396000f300608060405260043610610057576000357c0100000000000000000000000000000000000000000000000000000000900463ffffffff1680634ef7ca551461005c57806358bc3d13146100a157806374fe878d146100d1575b600080fd5b34801561006857600080fd5b50610083600480360361007e91908101906109c7565b6100fc565b60405161009899989796959493929190610a53565b60405180910390f35b6100bb60048036036100b69190810190610899565b6105b7565b6040516100c89190610b0a565b60405180910390f35b3480156100dd57600080fd5b506100e661076e565b6040516100f39190610b0a565b60405180910390f35b60006060806060806060600060606000600260008b815260200190815260200160002060010160009054906101000a900473ffffffffffffffffffffffffffffffffffffffff169850600260008b81526020019081526020016000206002018054600181600116156101000203166002900480601f0160208091040260200160405190810160405280929190818152602001828054600181600116156101000203166002900480156101ef5780601f106101c4576101008083540402835291602001916101ef565b820191906000526020600020905b8154815290600101906020018083116101d257829003601f168201915b50505050509750600260008b81526020019081526020016000206003018054600181600116156101000203166002900480601f0160208091040260200160405190810160405280929190818152602001828054600181600116156101000203166002900480156102a05780601f10610275576101008083540402835291602001916102a0565b820191906000526020600020905b81548152906001019060200180831161028357829003601f168201915b50505050509650600260008b81526020019081526020016000206004018054600181600116156101000203166002900480601f0160208091040260200160405190810160405280929190818152602001828054600181600116156101000203166002900480156103515780601f1061032657610100808354040283529160200191610351565b820191906000526020600020905b81548152906001019060200180831161033457829003601f168201915b50505050509550600260008b81526020019081526020016000206005018054600181600116156101000203166002900480601f0160208091040260200160405190810160405280929190818152602001828054600181600116156101000203166002900480156104025780601f106103d757610100808354040283529160200191610402565b820191906000526020600020905b8154815290600101906020018083116103e557829003601f168201915b50505050509450600260008b81526020019081526020016000206006018054600181600116156101000203166002900480601f0160208091040260200160405190810160405280929190818152602001828054600181600116156101000203166002900480156104b35780601f10610488576101008083540402835291602001916104b3565b820191906000526020600020905b81548152906001019060200180831161049657829003601f168201915b50505050509350600260008b815260200190815260200160002060070160009054906101000a900460ff169250600260008b81526020019081526020016000206008018054600181600116156101000203166002900480601f01602080910402602001604051908101604052809291908181526020018280546001816001161561010002031660029004801561058a5780601f1061055f5761010080835404028352916020019161058a565b820191906000526020600020905b81548152906001019060200180831161056d57829003601f168201915b50505050509150600260008b81526020019081526020016000206009015490509193959799909294969850565b6000610140604051908101604052808281526020013373ffffffffffffffffffffffffffffffffffffffff16815260200189815260200188815260200187815260200186815260200185815260200184151581526020018381526020016000815250600260008381526020019081526020016000206000820151816000015560208201518160010160006101000a81548173ffffffffffffffffffffffffffffffffffffffff021916908373ffffffffffffffffffffffffffffffffffffffff1602179055506040820151816002019080519060200190610699929190610776565b5060608201518160030190805190602001906106b6929190610776565b5060808201518160040190805190602001906106d3929190610776565b5060a08201518160050190805190602001906106f0929190610776565b5060c082015181600601908051906020019061070d929190610776565b5060e08201518160070160006101000a81548160ff02191690831515021790555061010082015181600801908051906020019061074b929190610776565b506101208201518160090155905050808060010191509050979650505050505050565b600080905090565b828054600181600116156101000203166002900490600052602060002090601f016020900481019282601f106107b757805160ff19168380011785556107e5565b828001600101855582156107e5579182015b828111156107e45782518255916020019190600101906107c9565b5b5090506107f291906107f6565b5090565b61081891905b808211156108145760008160009055506001016107fc565b5090565b90565b60006108278235610bbf565b905092915050565b600082601f830112151561084257600080fd5b813561085561085082610b52565b610b25565b9150808252602083016020830185838301111561087157600080fd5b61087c838284610bd5565b50505092915050565b60006108918235610bcb565b905092915050565b600080600080600080600060e0888a0312156108b457600080fd5b600088013567ffffffffffffffff8111156108ce57600080fd5b6108da8a828b0161082f565b975050602088013567ffffffffffffffff8111156108f757600080fd5b6109038a828b0161082f565b965050604088013567ffffffffffffffff81111561092057600080fd5b61092c8a828b0161082f565b955050606088013567ffffffffffffffff81111561094957600080fd5b6109558a828b0161082f565b945050608088013567ffffffffffffffff81111561097257600080fd5b61097e8a828b0161082f565b93505060a061098f8a828b0161081b565b92505060c088013567ffffffffffffffff8111156109ac57600080fd5b6109b88a828b0161082f565b91505092959891949750929550565b6000602082840312156109d957600080fd5b60006109e784828501610885565b91505092915050565b6109f981610b89565b82525050565b610a0881610ba9565b82525050565b6000610a1982610b7e565b808452610a2d816020860160208601610be4565b610a3681610c17565b602085010191505092915050565b610a4d81610bb5565b82525050565b600061012082019050610a69600083018c6109f0565b8181036020830152610a7b818b610a0e565b90508181036040830152610a8f818a610a0e565b90508181036060830152610aa38189610a0e565b90508181036080830152610ab78188610a0e565b905081810360a0830152610acb8187610a0e565b9050610ada60c08301866109ff565b81810360e0830152610aec8185610a0e565b9050610afc610100830184610a44565b9a9950505050505050505050565b6000602082019050610b1f6000830184610a44565b92915050565b6000604051905081810181811067ffffffffffffffff82111715610b4857600080fd5b8060405250919050565b600067ffffffffffffffff821115610b6957600080fd5b601f19601f8301169050602081019050919050565b600081519050919050565b600073ffffffffffffffffffffffffffffffffffffffff82169050919050565b60008115159050919050565b6000819050919050565b60008115159050919050565b6000819050919050565b82818337600083830152505050565b60005b83811015610c02578082015181840152602081019050610be7565b83811115610c11576000848401525b50505050565b6000601f19601f83011690509190505600a265627a7a723058208e9eacb5f34a74d51c10d6cadb1f06e4d9fb45130b9a8724550a30a380eca4216c6578706572696d656e74616cf50037",
  "source": "pragma solidity ^0.4.23;\npragma experimental ABIEncoderV2;\n\ncontract Grape {\n    uint256 concertID = 0;\n    uint256 ticketID = 0;\n\n    modifier isOwner(address user){\n        require(msg.sender == user, \"Authorization Failed\");\n        _;\n    }\n\n    modifier isTimeEnd(uint time){\n        require(time < now, \"Time is end\");\n        _;\n    }\n\n    modifier isAuction(uint256 _ticketId, uint256 _concertId){\n        require(concertList[_concertId].ticketList[_ticketId].isAuction == true, \"Not Auction\");\n        _;\n    }\n\n    struct TicketType {\n        string ticketName;\n        uint256 ticketPrice;\n        string ticketDescription;\n        uint256 ticketAmount;\n    }\n\n    struct Concert {\n        uint256 concertId;\n        address creator;\n        string name;\n        string place;\n        string term;\n        string ownerName;\n        string ticketTypes;\n        bool isPossibleAuction;\n        string tags;\n        uint256 ticketListCount;\n        mapping (uint256 => Ticket) ticketList;\n    }\n\n    mapping (uint256 => Concert) concertList;\n\n    struct Ticket {\n        uint256 concertId;\n        address owner;\n        uint256 date;\n        string auctionHistorys;\n        bool isAuction;\n        string description;\n    }\n\n    function createConcert(string name, string place, string term, string ownerName, string ticketTypes, bool isPossibleAuction, string tags) \n    public payable returns(uint256 concertID){\n        concertList[concertID] = (Concert(concertID, msg.sender, name, place, term, ownerName, ticketTypes, isPossibleAuction, tags, 0));\n        concertID = concertID++;        \n    }\n\n    function getConcert(uint256 concertId) public view returns (\n        address creator,\n        string name,\n        string place,\n        string term,\n        string ownerName,\n        string ticketTypes,\n        bool isPossibleAuction,\n        string tags,\n        uint256 ticketListCount\n    )\n    {\n        creator = concertList[concertId].creator;\n        name = concertList[concertId].name;\n        place = concertList[concertId].place;\n        term = concertList[concertId].term;\n        ownerName = concertList[concertId].ownerName;\n        ticketTypes = concertList[concertId].ticketTypes;\n        isPossibleAuction = concertList[concertId].isPossibleAuction;\n        tags = concertList[concertId].tags;\n        ticketListCount = concertList[concertId].ticketListCount;\n    }\n\n    function getconcertID() public view returns (\n        uint256 concertID\n    ) {        \n        concertID = concertID;\n    }\n}",
  "sourcePath": "/Users/Gwangmin/Documents/klaytn-web/contracts/ExampleContract.sol",
  "compiler": {
    "name": "solc",
    "version": "0.4.24+commit.e67f0147.Emscripten.clang"
  },
  "schemaVersion": "2.0.1",
  "updatedAt": "2018-10-27T04:35:27.620Z"
}