{
  "contractName": "Grape",
  "abi": [
    {
      "constant": false,
      "inputs": [
        {
          "name": "_name",
          "type": "string"
        },
        {
          "name": "_term",
          "type": "string"
        },
        {
          "name": "_ownerName",
          "type": "string"
        },
        {
          "name": "_ticketTypes",
          "type": "string"
        },
        {
          "name": "_isPossibleAuction",
          "type": "bool"
        },
        {
          "name": "_ticketTypeCounts",
          "type": "uint256"
        },
        {
          "name": "_ticketName",
          "type": "string[]"
        },
        {
          "name": "_ticketPrice",
          "type": "uint256[]"
        },
        {
          "name": "_ticketDescription",
          "type": "string[]"
        },
        {
          "name": "_ticketAmount",
          "type": "uint256[]"
        }
      ],
      "name": "createConcert",
      "outputs": [
        {
          "name": "concertID",
          "type": "uint256"
        }
      ],
      "payable": true,
      "stateMutability": "payable",
      "type": "function"
    },
    {
      "constant": true,
      "inputs": [
        {
          "name": "_concertId",
          "type": "uint256"
        }
      ],
      "name": "getConcert",
      "outputs": [
        {
          "name": "_creator",
          "type": "address"
        },
        {
          "name": "_name",
          "type": "string"
        },
        {
          "name": "_term",
          "type": "string"
        },
        {
          "name": "_ownerName",
          "type": "string"
        },
        {
          "name": "_ticketTypes",
          "type": "string"
        },
        {
          "name": "_ticketTypeCounts",
          "type": "uint256"
        },
        {
          "name": "_ticketName",
          "type": "string[]"
        },
        {
          "name": "_ticketPrice",
          "type": "uint256[]"
        },
        {
          "name": "_ticketDescription",
          "type": "string[]"
        },
        {
          "name": "_ticketAmount",
          "type": "uint256[]"
        },
        {
          "name": "_isPossibleAuction",
          "type": "bool"
        },
        {
          "name": "_ticketListCount",
          "type": "uint256"
        }
      ],
      "payable": false,
      "stateMutability": "view",
      "type": "function"
    },
    {
      "constant": true,
      "inputs": [],
      "name": "getconcertID",
      "outputs": [
        {
          "name": "_concertID",
          "type": "uint256"
        }
      ],
      "payable": false,
      "stateMutability": "view",
      "type": "function"
    },
    {
      "constant": false,
      "inputs": [
        {
          "name": "_concertId",
          "type": "uint256"
        },
        {
          "name": "_ticketPrice",
          "type": "uint256"
        },
        {
          "name": "_ticketType",
          "type": "uint256"
        }
      ],
      "name": "payTicekt",
      "outputs": [],
      "payable": true,
      "stateMutability": "payable",
      "type": "function"
    }
  ],
  "bytecode": "0x60806040526000805534801561001457600080fd5b50611617806100246000396000f300608060405260043610610062576000357c0100000000000000000000000000000000000000000000000000000000900463ffffffff1680634ef7ca551461006757806374fe878d146100af578063d996ee59146100da578063f6a78afd1461010a575b600080fd5b34801561007357600080fd5b5061008e60048036036100899190810190611122565b610126565b6040516100a69c9b9a999897969594939291906112fc565b60405180910390f35b3480156100bb57600080fd5b506100c461075b565b6040516100d191906113ee565b60405180910390f35b6100f460048036036100ef9190810190610f87565b610764565b60405161010191906113ee565b60405180910390f35b610124600480360361011f919081019061114b565b610976565b005b60006060806060806000606080606080600080600160008e815260200190815260200160002060010160009054906101000a900473ffffffffffffffffffffffffffffffffffffffff169b50600160008e81526020019081526020016000206002018054600181600116156101000203166002900480601f01602080910402602001604051908101604052809291908181526020018280546001816001161561010002031660029004801561021c5780601f106101f15761010080835404028352916020019161021c565b820191906000526020600020905b8154815290600101906020018083116101ff57829003601f168201915b50505050509a50600160008e81526020019081526020016000206003018054600181600116156101000203166002900480601f0160208091040260200160405190810160405280929190818152602001828054600181600116156101000203166002900480156102cd5780601f106102a2576101008083540402835291602001916102cd565b820191906000526020600020905b8154815290600101906020018083116102b057829003601f168201915b50505050509950600160008e81526020019081526020016000206004018054600181600116156101000203166002900480601f01602080910402602001604051908101604052809291908181526020018280546001816001161561010002031660029004801561037e5780601f106103535761010080835404028352916020019161037e565b820191906000526020600020905b81548152906001019060200180831161036157829003601f168201915b50505050509850600160008e81526020019081526020016000206005018054600181600116156101000203166002900480601f01602080910402602001604051908101604052809291908181526020018280546001816001161561010002031660029004801561042f5780601f106104045761010080835404028352916020019161042f565b820191906000526020600020905b81548152906001019060200180831161041257829003601f168201915b50505050509750600160008e815260200190815260200160002060060160009054906101000a900460ff169150600160008e8152602001908152602001600020600c01549050600160008e8152602001908152602001600020600701549650600160008e8152602001908152602001600020600801805480602002602001604051908101604052809291908181526020016000905b82821015610580578382906000526020600020018054600181600116156101000203166002900480601f01602080910402602001604051908101604052809291908181526020018280546001816001161561010002031660029004801561056c5780601f106105415761010080835404028352916020019161056c565b820191906000526020600020905b81548152906001019060200180831161054f57829003601f168201915b5050505050815260200190600101906104c4565b505050509550600160008e81526020019081526020016000206009018054806020026020016040519081016040528092919081815260200182805480156105e657602002820191906000526020600020905b8154815260200190600101908083116105d2575b50505050509450600160008e8152602001908152602001600020600a01805480602002602001604051908101604052809291908181526020016000905b828210156106df578382906000526020600020018054600181600116156101000203166002900480601f0160208091040260200160405190810160405280929190818152602001828054600181600116156101000203166002900480156106cb5780601f106106a0576101008083540402835291602001916106cb565b820191906000526020600020905b8154815290600101906020018083116106ae57829003601f168201915b505050505081526020019060010190610623565b505050509350600160008e8152602001908152602001600020600b0180548060200260200160405190810160405280929190818152602001828054801561074557602002820191906000526020600020905b815481526020019060010190808311610731575b5050505050925091939597999b5091939597999b565b60008054905090565b60006101a0604051908101604052808281526020013373ffffffffffffffffffffffffffffffffffffffff1681526020018c81526020018b81526020018a815260200189815260200188151581526020018781526020018681526020018581526020018481526020018381526020016000815250600160008381526020019081526020016000206000820151816000015560208201518160010160006101000a81548173ffffffffffffffffffffffffffffffffffffffff021916908373ffffffffffffffffffffffffffffffffffffffff1602179055506040820151816002019080519060200190610858929190610bf2565b506060820151816003019080519060200190610875929190610bf2565b506080820151816004019080519060200190610892929190610bf2565b5060a08201518160050190805190602001906108af929190610bf2565b5060c08201518160060160006101000a81548160ff02191690831515021790555060e082015181600701556101008201518160080190805190602001906108f7929190610c72565b50610120820151816009019080519060200190610915929190610cd2565b5061014082015181600a019080519060200190610933929190610c72565b5061016082015181600b019080519060200190610951929190610cd2565b5061018082015181600c015590505080806001019150509a9950505050505050505050565b6001600084815260200190815260200160002060010160009054906101000a900473ffffffffffffffffffffffffffffffffffffffff1673ffffffffffffffffffffffffffffffffffffffff166108fc60016000868152602001908152602001600020600901838154811015156109e957fe5b90600052602060002001549081150290604051600060405180830381858888f19350505050158015610a1f573d6000803e3d6000fd5b508260016000858152602001908152602001600020600d01600060016000878152602001908152602001600020600c01548152602001908152602001600020600001819055503360016000858152602001908152602001600020600d01600060016000878152602001908152602001600020600c0154815260200190815260200160002060010160006101000a81548173ffffffffffffffffffffffffffffffffffffffff021916908373ffffffffffffffffffffffffffffffffffffffff1602179055508060016000858152602001908152602001600020600d01600060016000878152602001908152602001600020600c01548152602001908152602001600020600201819055504260016000858152602001908152602001600020600d01600060016000878152602001908152602001600020600c0154815260200190815260200160002060030181905550600060016000858152602001908152602001600020600d01600060016000878152602001908152602001600020600c0154815260200190815260200160002060050160006101000a81548160ff02191690831515021790555060016000848152602001908152602001600020600c0160008154809291906001019190505550505050565b828054600181600116156101000203166002900490600052602060002090601f016020900481019282601f10610c3357805160ff1916838001178555610c61565b82800160010185558215610c61579182015b82811115610c60578251825591602001919060010190610c45565b5b509050610c6e9190610d1f565b5090565b828054828255906000526020600020908101928215610cc1579160200282015b82811115610cc0578251829080519060200190610cb0929190610bf2565b5091602001919060010190610c92565b5b509050610cce9190610d44565b5090565b828054828255906000526020600020908101928215610d0e579160200282015b82811115610d0d578251825591602001919060010190610cf2565b5b509050610d1b9190610d1f565b5090565b610d4191905b80821115610d3d576000816000905550600101610d25565b5090565b90565b610d6d91905b80821115610d695760008181610d609190610d70565b50600101610d4a565b5090565b90565b50805460018160011615610100020316600290046000825580601f10610d965750610db5565b601f016020900490600052602060002090810190610db49190610d1f565b5b50565b600082601f8301121515610dcb57600080fd5b8135610dde610dd982611436565b611409565b9150818183526020840193506020810190508360005b83811015610e245781358601610e0a8882610ec7565b845260208401935060208301925050600181019050610df4565b5050505092915050565b600082601f8301121515610e4157600080fd5b8135610e54610e4f8261145e565b611409565b91508181835260208401935060208101905083856020840282011115610e7957600080fd5b60005b83811015610ea95781610e8f8882610f73565b845260208401935060208301925050600181019050610e7c565b5050505092915050565b6000610ebf8235611574565b905092915050565b600082601f8301121515610eda57600080fd5b8135610eed610ee882611486565b611409565b91508082526020830160208301858383011115610f0957600080fd5b610f1483828461158a565b50505092915050565b600082601f8301121515610f3057600080fd5b8135610f43610f3e826114b2565b611409565b91508082526020830160208301858383011115610f5f57600080fd5b610f6a83828461158a565b50505092915050565b6000610f7f8235611580565b905092915050565b6000806000806000806000806000806101408b8d031215610fa757600080fd5b60008b013567ffffffffffffffff811115610fc157600080fd5b610fcd8d828e01610f1d565b9a505060208b013567ffffffffffffffff811115610fea57600080fd5b610ff68d828e01610f1d565b99505060408b013567ffffffffffffffff81111561101357600080fd5b61101f8d828e01610f1d565b98505060608b013567ffffffffffffffff81111561103c57600080fd5b6110488d828e01610f1d565b97505060806110598d828e01610eb3565b96505060a061106a8d828e01610f73565b95505060c08b013567ffffffffffffffff81111561108757600080fd5b6110938d828e01610db8565b94505060e08b013567ffffffffffffffff8111156110b057600080fd5b6110bc8d828e01610e2e565b9350506101008b013567ffffffffffffffff8111156110da57600080fd5b6110e68d828e01610db8565b9250506101208b013567ffffffffffffffff81111561110457600080fd5b6111108d828e01610e2e565b9150509295989b9194979a5092959850565b60006020828403121561113457600080fd5b600061114284828501610f73565b91505092915050565b60008060006060848603121561116057600080fd5b600061116e86828701610f73565b935050602061117f86828701610f73565b925050604061119086828701610f73565b9150509250925092565b6111a38161153e565b82525050565b60006111b4826114f8565b808452602084019350836020820285016111cd856114de565b60005b848110156112065783830388526111e88383516112b7565b92506111f382611524565b91506020880197506001810190506111d0565b508196508694505050505092915050565b600061122282611503565b808452602084019350611234836114eb565b60005b828110156112665761124a8683516112ed565b61125382611531565b9150602086019550600181019050611237565b50849250505092915050565b61127b8161155e565b82525050565b600061128c82611519565b8084526112a0816020860160208601611599565b6112a9816115cc565b602085010191505092915050565b60006112c28261150e565b8084526112d6816020860160208601611599565b6112df816115cc565b602085010191505092915050565b6112f68161156a565b82525050565b600061018082019050611312600083018f61119a565b8181036020830152611324818e611281565b90508181036040830152611338818d611281565b9050818103606083015261134c818c611281565b90508181036080830152611360818b611281565b905061136f60a083018a6112ed565b81810360c083015261138181896111a9565b905081810360e08301526113958188611217565b90508181036101008301526113aa81876111a9565b90508181036101208301526113bf8186611217565b90506113cf610140830185611272565b6113dd6101608301846112ed565b9d9c50505050505050505050505050565b600060208201905061140360008301846112ed565b92915050565b6000604051905081810181811067ffffffffffffffff8211171561142c57600080fd5b8060405250919050565b600067ffffffffffffffff82111561144d57600080fd5b602082029050602081019050919050565b600067ffffffffffffffff82111561147557600080fd5b602082029050602081019050919050565b600067ffffffffffffffff82111561149d57600080fd5b601f19601f8301169050602081019050919050565b600067ffffffffffffffff8211156114c957600080fd5b601f19601f8301169050602081019050919050565b6000602082019050919050565b6000602082019050919050565b600081519050919050565b600081519050919050565b600081519050919050565b600081519050919050565b6000602082019050919050565b6000602082019050919050565b600073ffffffffffffffffffffffffffffffffffffffff82169050919050565b60008115159050919050565b6000819050919050565b60008115159050919050565b6000819050919050565b82818337600083830152505050565b60005b838110156115b757808201518184015260208101905061159c565b838111156115c6576000848401525b50505050565b6000601f19601f83011690509190505600a265627a7a723058203fbf5f75af8235aa9ada1101f30f3c8c99cea7306ca631d45ad1cdfc9944ac6d6c6578706572696d656e74616cf50037",
  "source": "pragma solidity ^0.4.23;\npragma experimental ABIEncoderV2;\n\ncontract Grape {\n    uint256 concertID = 0;\n\n    struct Concert {\n        uint256 concertId;\n        address creator;\n        string name;\n        string term;\n        string ownerName;\n        string ticketTypes;\n        bool isPossibleAuction;\n        uint256 ticketTypeCounts;\n        string[] ticketName;\n        uint256[] ticketPrice;\n        string[] ticketDescription;\n        uint256[] ticketAmount;\n        uint256 ticketListCount;\n        mapping (uint256 => Ticket) ticketList;\n    }\n\n    mapping (uint256 => Concert) concertList;\n\n    struct Ticket {\n        uint256 concertId;\n        address owner;\n        uint256 ticketType;\n        uint256 date;\n        string auctionHistorys;\n        bool isAuction;\n    }\n\n    function createConcert(string _name, string _term, string _ownerName, string _ticketTypes, bool _isPossibleAuction,\n    uint256 _ticketTypeCounts, string[] _ticketName, uint256[] _ticketPrice, string[] _ticketDescription, uint256[] _ticketAmount) \n    public payable returns(uint256 concertID){\n        concertList[concertID] = (Concert(concertID, msg.sender, _name, _term, _ownerName, _ticketTypes, _isPossibleAuction, _ticketTypeCounts, _ticketName, _ticketPrice, _ticketDescription, _ticketAmount, 0));\n        concertID++;\n    }\n\n    function getConcert(uint256 _concertId) public view returns (\n        address _creator,\n        string _name,\n        string _term,\n        string _ownerName,\n        string _ticketTypes,\n        uint256 _ticketTypeCounts,\n        string[] _ticketName,\n        uint256[] _ticketPrice,\n        string[] _ticketDescription,\n        uint256[] _ticketAmount,\n        bool _isPossibleAuction,\n        uint256 _ticketListCount\n    )\n    {\n        _creator = concertList[_concertId].creator;\n        _name = concertList[_concertId].name;\n        _term = concertList[_concertId].term;\n        _ownerName = concertList[_concertId].ownerName;\n        _ticketTypes = concertList[_concertId].ticketTypes;\n        _isPossibleAuction = concertList[_concertId].isPossibleAuction;\n        _ticketListCount = concertList[_concertId].ticketListCount;\n        _ticketTypeCounts = concertList[_concertId].ticketTypeCounts;\n        _ticketName = concertList[_concertId].ticketName;\n        _ticketPrice = concertList[_concertId].ticketPrice;\n        _ticketDescription = concertList[_concertId].ticketDescription;\n        _ticketAmount = concertList[_concertId].ticketAmount;\n    }\n\n    function getconcertID() public view returns (\n        uint256 _concertID\n    ) {\n        _concertID = concertID;\n    }\n\n    function payTicekt(uint256 _concertId, uint256 _ticketPrice, uint256 _ticketType) public payable {\n        concertList[_concertId].creator.transfer(concertList[_concertId].ticketPrice[_ticketType]);\n        concertList[_concertId].ticketList[concertList[_concertId].ticketListCount].concertId = _concertId;\n        concertList[_concertId].ticketList[concertList[_concertId].ticketListCount].owner = msg.sender;\n        concertList[_concertId].ticketList[concertList[_concertId].ticketListCount].ticketType = _ticketType;\n        concertList[_concertId].ticketList[concertList[_concertId].ticketListCount].date = block.timestamp;\n        concertList[_concertId].ticketList[concertList[_concertId].ticketListCount].isAuction = false;\n        concertList[_concertId].ticketListCount++;\n    }\n}",
  "sourcePath": "/Users/Gwangmin/Documents/klaytn-web/contracts/Grape.sol",
  "compiler": {
    "name": "solc",
    "version": "0.4.24+commit.e67f0147.Emscripten.clang"
  },
  "schemaVersion": "2.0.1",
  "updatedAt": "2018-10-27T00:32:40.325Z"
}