{
  "contractName": "Grape",
  "abi": [
    {
      "constant": false,
      "inputs": [
        {
          "name": "name",
          "type": "string"
        },
        {
          "name": "term",
          "type": "string"
        },
        {
          "name": "ownerName",
          "type": "string"
        },
        {
          "name": "ticketTypes",
          "type": "string"
        },
        {
          "name": "isPossibleAuction",
          "type": "bool"
        },
        {
          "name": "tags",
          "type": "string"
        }
      ],
      "name": "createConcert",
      "outputs": [
        {
          "name": "concertID",
          "type": "uint256"
        }
      ],
      "payable": true,
      "stateMutability": "payable",
      "type": "function"
    },
    {
      "constant": true,
      "inputs": [
        {
          "name": "concertId",
          "type": "uint256"
        }
      ],
      "name": "getConcert",
      "outputs": [
        {
          "name": "creator",
          "type": "address"
        },
        {
          "name": "name",
          "type": "string"
        },
        {
          "name": "term",
          "type": "string"
        },
        {
          "name": "ownerName",
          "type": "string"
        },
        {
          "name": "ticketTypes",
          "type": "string"
        },
        {
          "name": "isPossibleAuction",
          "type": "bool"
        },
        {
          "name": "tags",
          "type": "string"
        },
        {
          "name": "ticketListCount",
          "type": "uint256"
        }
      ],
      "payable": false,
      "stateMutability": "view",
      "type": "function"
    },
    {
      "constant": false,
      "inputs": [],
      "name": "getconcertID",
      "outputs": [
        {
          "name": "concertID",
          "type": "uint256"
        }
      ],
      "payable": false,
      "stateMutability": "nonpayable",
      "type": "function"
    },
    {
      "constant": false,
      "inputs": [
        {
          "name": "concertId",
          "type": "uint256"
        },
        {
          "name": "ticketPrice",
          "type": "uint256"
        },
        {
          "name": "ticketName",
          "type": "string"
        },
        {
          "name": "date",
          "type": "string"
        }
      ],
      "name": "payTicekt",
      "outputs": [],
      "payable": true,
      "stateMutability": "payable",
      "type": "function"
    }
  ],
  "bytecode": "0x608060405260008055600060015534801561001957600080fd5b50610e3b806100296000396000f300608060405260043610610062576000357c0100000000000000000000000000000000000000000000000000000000900463ffffffff1680634ef7ca551461006757806374fe878d146103025780638711ae641461032d57806394277049146103e3575b600080fd5b34801561007357600080fd5b5061009260048036038101908080359060200190929190505050610577565b604051808973ffffffffffffffffffffffffffffffffffffffff1673ffffffffffffffffffffffffffffffffffffffff16815260200180602001806020018060200180602001881515151581526020018060200187815260200186810386528d818151815260200191508051906020019080838360005b83811015610124578082015181840152602081019050610109565b50505050905090810190601f1680156101515780820380516001836020036101000a031916815260200191505b5086810385528c818151815260200191508051906020019080838360005b8381101561018a57808201518184015260208101905061016f565b50505050905090810190601f1680156101b75780820380516001836020036101000a031916815260200191505b5086810384528b818151815260200191508051906020019080838360005b838110156101f05780820151818401526020810190506101d5565b50505050905090810190601f16801561021d5780820380516001836020036101000a031916815260200191505b5086810383528a818151815260200191508051906020019080838360005b8381101561025657808201518184015260208101905061023b565b50505050905090810190601f1680156102835780820380516001836020036101000a031916815260200191505b50868103825288818151815260200191508051906020019080838360005b838110156102bc5780820151818401526020810190506102a1565b50505050905090810190601f1680156102e95780820380516001836020036101000a031916815260200191505b509d505050505050505050505050505060405180910390f35b34801561030e57600080fd5b5061031761097d565b6040518082815260200191505060405180910390f35b6103e16004803603810190808035906020019092919080359060200190929190803590602001908201803590602001908080601f0160208091040260200160405190810160405280939291908181526020018383808284378201915050505050509192919290803590602001908201803590602001908080601f0160208091040260200160405190810160405280939291908181526020018383808284378201915050505050509192919290505050610985565b005b610561600480360381019080803590602001908201803590602001908080601f0160208091040260200160405190810160405280939291908181526020018383808284378201915050505050509192919290803590602001908201803590602001908080601f0160208091040260200160405190810160405280939291908181526020018383808284378201915050505050509192919290803590602001908201803590602001908080601f0160208091040260200160405190810160405280939291908181526020018383808284378201915050505050509192919290803590602001908201803590602001908080601f0160208091040260200160405190810160405280939291908181526020018383808284378201915050505050509192919290803515159060200190929190803590602001908201803590602001908080601f0160208091040260200160405190810160405280939291908181526020018383808284378201915050505050509192919290505050610b58565b6040518082815260200191505060405180910390f35b6000606080606080600060606000600360008a815260200190815260200160002060010160009054906101000a900473ffffffffffffffffffffffffffffffffffffffff169750600360008a81526020019081526020016000206002018054600181600116156101000203166002900480601f0160208091040260200160405190810160405280929190818152602001828054600181600116156101000203166002900480156106685780601f1061063d57610100808354040283529160200191610668565b820191906000526020600020905b81548152906001019060200180831161064b57829003601f168201915b50505050509650600360008a81526020019081526020016000206003018054600181600116156101000203166002900480601f0160208091040260200160405190810160405280929190818152602001828054600181600116156101000203166002900480156107195780601f106106ee57610100808354040283529160200191610719565b820191906000526020600020905b8154815290600101906020018083116106fc57829003601f168201915b50505050509550600360008a81526020019081526020016000206004018054600181600116156101000203166002900480601f0160208091040260200160405190810160405280929190818152602001828054600181600116156101000203166002900480156107ca5780601f1061079f576101008083540402835291602001916107ca565b820191906000526020600020905b8154815290600101906020018083116107ad57829003601f168201915b50505050509450600360008a81526020019081526020016000206005018054600181600116156101000203166002900480601f01602080910402602001604051908101604052809291908181526020018280546001816001161561010002031660029004801561087b5780601f106108505761010080835404028352916020019161087b565b820191906000526020600020905b81548152906001019060200180831161085e57829003601f168201915b50505050509350600360008a815260200190815260200160002060060160009054906101000a900460ff169250600360008a81526020019081526020016000206007018054600181600116156101000203166002900480601f0160208091040260200160405190810160405280929190818152602001828054600181600116156101000203166002900480156109525780601f1061092757610100808354040283529160200191610952565b820191906000526020600020905b81548152906001019060200180831161093557829003601f168201915b50505050509150600360008a8152602001908152602001600020600801549050919395975091939597565b600080905090565b6003600085815260200190815260200160002060010160009054906101000a900473ffffffffffffffffffffffffffffffffffffffff1673ffffffffffffffffffffffffffffffffffffffff166108fc849081150290604051600060405180830381858888f19350505050508360026000600360008881526020019081526020016000206008015481526020019081526020016000206000018190555033600260006003600088815260200190815260200160002060080154815260200190815260200160002060010160006101000a81548173ffffffffffffffffffffffffffffffffffffffff021916908373ffffffffffffffffffffffffffffffffffffffff1602179055508060026000600360008881526020019081526020016000206008015481526020019081526020016000206002019080519060200190610acd929190610cea565b506000600260006003600088815260200190815260200160002060080154815260200190815260200160002060040160006101000a81548160ff02191690831515021790555060036000858152602001908152602001600020600801600081548092919060010191905055600360008681526020019081526020016000206008018190555050505050565b6000610120604051908101604052808281526020013373ffffffffffffffffffffffffffffffffffffffff16815260200188815260200187815260200186815260200185815260200184151581526020018381526020016000815250600360008381526020019081526020016000206000820151816000015560208201518160010160006101000a81548173ffffffffffffffffffffffffffffffffffffffff021916908373ffffffffffffffffffffffffffffffffffffffff1602179055506040820151816002019080519060200190610c34929190610d6a565b506060820151816003019080519060200190610c51929190610d6a565b506080820151816004019080519060200190610c6e929190610d6a565b5060a0820151816005019080519060200190610c8b929190610d6a565b5060c08201518160060160006101000a81548160ff02191690831515021790555060e0820151816007019080519060200190610cc8929190610d6a565b5061010082015181600801559050508080600101915090509695505050505050565b828054600181600116156101000203166002900490600052602060002090601f016020900481019282601f10610d2b57805160ff1916838001178555610d59565b82800160010185558215610d59579182015b82811115610d58578251825591602001919060010190610d3d565b5b509050610d669190610dea565b5090565b828054600181600116156101000203166002900490600052602060002090601f016020900481019282601f10610dab57805160ff1916838001178555610dd9565b82800160010185558215610dd9579182015b82811115610dd8578251825591602001919060010190610dbd565b5b509050610de69190610dea565b5090565b610e0c91905b80821115610e08576000816000905550600101610df0565b5090565b905600a165627a7a72305820f3b12b39c25ba3a248915451938b93afd0c529601ffd2f78c82dc72a22774af80029",
  "source": "pragma solidity ^0.4.23;\n\n\ncontract Grape {\n    uint256 concertID = 0;\n    uint256 ticketID = 0;\n\n    struct TicketType {\n        string ticketName;\n        uint256 ticketPrice;\n        string ticketDescription;\n        uint256 ticketAmount;\n    }\n\n    struct Concert {\n        uint256 concertId;\n        address creator;\n        string name;\n        string term;\n        string ownerName;\n        string ticketTypes;\n        bool isPossibleAuction;\n        string tags;\n        uint256 ticketListCount;\n    }\n\n    mapping (uint256 => Ticket) ticketList;\n    mapping (uint256 => Concert) concertList;\n\n    struct Ticket {\n        uint256 concertId;\n        address owner;\n        string date;\n        string auctionHistorys;\n        bool isAuction;\n    }\n\n    function createConcert(string name, string term, string ownerName, string ticketTypes, bool isPossibleAuction, string tags) \n    public payable returns(uint256 concertID){\n        concertList[concertID] = (Concert(concertID, msg.sender, name, term, ownerName, ticketTypes, isPossibleAuction, tags, 0));\n        concertID = concertID++;\n    }\n    function getConcert(uint256 concertId) public view returns (\n        address creator,\n        string name,\n        string term,\n        string ownerName,\n        string ticketTypes,\n        // string ticketName, uint256 ticketPrice, string ticketDescription, uint256 ticketAmount;\n        bool isPossibleAuction,\n        string tags,\n        uint256 ticketListCount\n    )\n    {\n        creator = concertList[concertId].creator;\n        name = concertList[concertId].name;\n        term = concertList[concertId].term;\n        ownerName = concertList[concertId].ownerName;\n        ticketTypes = concertList[concertId].ticketTypes;\n        isPossibleAuction = concertList[concertId].isPossibleAuction;\n        tags = concertList[concertId].tags;\n        ticketListCount = concertList[concertId].ticketListCount;\n    }\n    function getconcertID() returns (\n        uint256 concertID\n    ) {\n        concertID = concertID;\n    }\n\n    function payTicekt(uint256 concertId, uint256 ticketPrice, string ticketName, string date) public payable {\n        concertList[concertId].creator.send(ticketPrice);\n        ticketList[concertList[concertId].ticketListCount].concertId = concertId;\n        ticketList[concertList[concertId].ticketListCount].owner = msg.sender;\n        ticketList[concertList[concertId].ticketListCount].date = date;\n        ticketList[concertList[concertId].ticketListCount].isAuction = false;\n        concertList[concertId].ticketListCount = concertList[concertId].ticketListCount++;\n    }\n}",
  "sourcePath": "/Users/Gwangmin/Documents/Grape-Web/contracts/Grape.sol",
  "compiler": {
    "name": "solc",
    "version": "0.4.24+commit.e67f0147.Emscripten.clang"
  },
  "schemaVersion": "2.0.1",
  "updatedAt": "2018-10-26T07:41:20.590Z"
}