{
  "contractName": "Grape",
  "abi": [
    {
      "constant": false,
      "inputs": [
        {
          "name": "_isPossibleAuction",
          "type": "bool"
        },
        {
          "name": "_ticketTypeCounts",
          "type": "uint256"
        },
        {
          "name": "_ticketName",
          "type": "string[]"
        },
        {
          "name": "_ticketPrice",
          "type": "uint256[]"
        },
        {
          "name": "_ticketDescription",
          "type": "string[]"
        },
        {
          "name": "_ticketAmount",
          "type": "uint256[]"
        }
      ],
      "name": "createConcert",
      "outputs": [],
      "payable": true,
      "stateMutability": "payable",
      "type": "function"
    },
    {
      "constant": true,
      "inputs": [
        {
          "name": "_concertId",
          "type": "uint256"
        }
      ],
      "name": "getConcert",
      "outputs": [
        {
          "name": "_creator",
          "type": "address"
        },
        {
          "name": "_ticketTypeCounts",
          "type": "uint256"
        },
        {
          "name": "_ticketName",
          "type": "string[]"
        },
        {
          "name": "_ticketPrice",
          "type": "uint256[]"
        },
        {
          "name": "_ticketDescription",
          "type": "string[]"
        },
        {
          "name": "_ticketAmount",
          "type": "uint256[]"
        },
        {
          "name": "_isPossibleAuction",
          "type": "bool"
        },
        {
          "name": "_ticketListCount",
          "type": "uint256"
        }
      ],
      "payable": false,
      "stateMutability": "view",
      "type": "function"
    },
    {
      "constant": true,
      "inputs": [],
      "name": "getconcertID",
      "outputs": [
        {
          "name": "_concertID",
          "type": "uint256"
        }
      ],
      "payable": false,
      "stateMutability": "view",
      "type": "function"
    },
    {
      "constant": false,
      "inputs": [
        {
          "name": "_concertId",
          "type": "uint256"
        },
        {
          "name": "_ticketType",
          "type": "uint256"
        },
        {
          "name": "_encryptionAuthKey",
          "type": "string"
        }
      ],
      "name": "payTicekt",
      "outputs": [],
      "payable": true,
      "stateMutability": "payable",
      "type": "function"
    },
    {
      "constant": true,
      "inputs": [
        {
          "name": "_concertId",
          "type": "uint256"
        },
        {
          "name": "_owner",
          "type": "address"
        }
      ],
      "name": "getTicket",
      "outputs": [
        {
          "name": "_ticketId",
          "type": "uint256"
        },
        {
          "name": "_ticketType",
          "type": "uint256"
        },
        {
          "name": "_date",
          "type": "uint256"
        },
        {
          "name": "_ticketName",
          "type": "string"
        },
        {
          "name": "_ticketPrice",
          "type": "uint256"
        },
        {
          "name": "_encryptionAuthKey",
          "type": "string"
        },
        {
          "name": "_ticketHistoryCount",
          "type": "uint256"
        },
        {
          "name": "_auctionHistoryLength",
          "type": "uint256"
        },
        {
          "name": "_isAuction",
          "type": "bool"
        }
      ],
      "payable": false,
      "stateMutability": "view",
      "type": "function"
    },
    {
      "constant": false,
      "inputs": [
        {
          "name": "_concertId",
          "type": "uint256"
        },
        {
          "name": "_ticketId",
          "type": "uint256"
        },
        {
          "name": "_ticketHistoryCount",
          "type": "uint256"
        }
      ],
      "name": "getTicketHistory",
      "outputs": [
        {
          "name": "_date",
          "type": "uint256"
        },
        {
          "name": "_owner",
          "type": "address"
        },
        {
          "name": "_price",
          "type": "uint256"
        }
      ],
      "payable": false,
      "stateMutability": "nonpayable",
      "type": "function"
    },
    {
      "constant": false,
      "inputs": [
        {
          "name": "_concertId",
          "type": "uint256"
        },
        {
          "name": "_ticketType",
          "type": "uint256"
        }
      ],
      "name": "buyUsedTicket",
      "outputs": [],
      "payable": true,
      "stateMutability": "payable",
      "type": "function"
    },
    {
      "constant": false,
      "inputs": [
        {
          "name": "_concertId",
          "type": "uint256"
        },
        {
          "name": "_ticketType",
          "type": "uint256"
        }
      ],
      "name": "sellUsedTicket",
      "outputs": [],
      "payable": true,
      "stateMutability": "payable",
      "type": "function"
    },
    {
      "constant": false,
      "inputs": [
        {
          "name": "_concertId",
          "type": "uint256"
        },
        {
          "name": "_ticketType",
          "type": "uint256"
        }
      ],
      "name": "cancleSellUsedTicket",
      "outputs": [],
      "payable": true,
      "stateMutability": "payable",
      "type": "function"
    }
  ],
  "bytecode": "0x60806040526000805534801561001457600080fd5b50612339806100246000396000f300608060405260043610610099576000357c0100000000000000000000000000000000000000000000000000000000900463ffffffff16806319a03cc21461009e5780634ef7ca55146100e357806353e5ddd0146101275780635e09f30a1461014357806374fe878d1461015f5780638dad280d1461018a57806395c7971b146101a6578063c43d2ea1146101c2578063c964fba214610201575b600080fd5b3480156100aa57600080fd5b506100c560048036036100c09190810190611cf4565b61021d565b6040516100da99989796959493929190612070565b60405180910390f35b3480156100ef57600080fd5b5061010a60048036036101059190810190611ccb565b6105c4565b60405161011e989796959493929190611f84565b60405180910390f35b610141600480360361013c9190810190611be2565b61092a565b005b61015d60048036036101589190810190611d30565b610ab0565b005b34801561016b57600080fd5b50610174610ca4565b604051610181919061201e565b60405180910390f35b6101a4600480360361019f9190810190611d30565b610cad565b005b6101c060048036036101bb9190810190611d6c565b610ea1565b005b3480156101ce57600080fd5b506101e960048036036101e49190810190611dd3565b6111b8565b6040516101f893929190612039565b60405180910390f35b61021b60048036036102169190810190611d30565b6112a9565b005b6000806000606060006060600080600080600090505b600160008d8152602001908152602001600020600701548110156105b6578a73ffffffffffffffffffffffffffffffffffffffff16600160008e8152602001908152602001600020600801600083815260200190815260200160002060010160009054906101000a900473ffffffffffffffffffffffffffffffffffffffff1673ffffffffffffffffffffffffffffffffffffffff1614156105a957809950600160008d81526020019081526020016000206008016000828152602001908152602001600020600201549850600160008d81526020019081526020016000206008016000828152602001908152602001600020600301549750600160008d8152602001908152602001600020600301600160008e815260200190815260200160002060080160008381526020019081526020016000206002015481548110151561037957fe5b906000526020600020018054600181600116156101000203166002900480601f0160208091040260200160405190810160405280929190818152602001828054600181600116156101000203166002900480156104175780601f106103ec57610100808354040283529160200191610417565b820191906000526020600020905b8154815290600101906020018083116103fa57829003601f168201915b50505050509650600160008d8152602001908152602001600020600401600160008e815260200190815260200160002060080160008381526020019081526020016000206002015481548110151561046b57fe5b90600052602060002001549550600160008d815260200190815260200160002060080160008281526020019081526020016000206004018054600181600116156101000203166002900480601f0160208091040260200160405190810160405280929190818152602001828054600181600116156101000203166002900480156105365780601f1061050b57610100808354040283529160200191610536565b820191906000526020600020905b81548152906001019060200180831161051957829003601f168201915b50505050509450600160008d81526020019081526020016000206008016000828152602001908152602001600020600501549350600160008d8152602001908152602001600020600801600082815260200190815260200160002060070160009054906101000a900460ff1691506105b6565b8080600101915050610233565b509295985092959850929598565b600080606080606080600080600160008a815260200190815260200160002060010160009054906101000a900473ffffffffffffffffffffffffffffffffffffffff169750600160008a815260200190815260200160002060010160149054906101000a900460ff169150600160008a8152602001908152602001600020600701549050600160008a8152602001908152602001600020600201549650600160008a8152602001908152602001600020600301805480602002602001604051908101604052809291908181526020016000905b82821015610753578382906000526020600020018054600181600116156101000203166002900480601f01602080910402602001604051908101604052809291908181526020018280546001816001161561010002031660029004801561073f5780601f106107145761010080835404028352916020019161073f565b820191906000526020600020905b81548152906001019060200180831161072257829003601f168201915b505050505081526020019060010190610697565b505050509550600160008a81526020019081526020016000206004018054806020026020016040519081016040528092919081815260200182805480156107b957602002820191906000526020600020905b8154815260200190600101908083116107a5575b50505050509450600160008a8152602001908152602001600020600501805480602002602001604051908101604052809291908181526020016000905b828210156108b2578382906000526020600020018054600181600116156101000203166002900480601f01602080910402602001604051908101604052809291908181526020018280546001816001161561010002031660029004801561089e5780601f106108735761010080835404028352916020019161089e565b820191906000526020600020905b81548152906001019060200180831161088157829003601f168201915b5050505050815260200190600101906107f6565b505050509350600160008a815260200190815260200160002060060180548060200260200160405190810160405280929190818152602001828054801561091857602002820191906000526020600020905b815481526020019060010190808311610904575b50505050509250919395975091939597565b6101206040519081016040528060005481526020013373ffffffffffffffffffffffffffffffffffffffff1681526020018715158152602001868152602001858152602001848152602001838152602001828152602001600081525060016000805481526020019081526020016000206000820151816000015560208201518160010160006101000a81548173ffffffffffffffffffffffffffffffffffffffff021916908373ffffffffffffffffffffffffffffffffffffffff16021790555060408201518160010160146101000a81548160ff021916908315150217905550606082015181600201556080820151816003019080519060200190610a319291906117b9565b5060a0820151816004019080519060200190610a4e929190611819565b5060c0820151816005019080519060200190610a6b9291906117b9565b5060e0820151816006019080519060200190610a88929190611819565b5061010082015181600701559050506000808154809291906001019190505550505050505050565b60008090505b6001600084815260200190815260200160002060070154811015610c9f573373ffffffffffffffffffffffffffffffffffffffff1660016000858152602001908152602001600020600801600083815260200190815260200160002060010160009054906101000a900473ffffffffffffffffffffffffffffffffffffffff1673ffffffffffffffffffffffffffffffffffffffff16148015610b8d575060016000848152602001908152602001600020600801600082815260200190815260200160002060070160009054906101000a900460ff165b15610c92576001600084815260200190815260200160002060010160009054906101000a900473ffffffffffffffffffffffffffffffffffffffff1673ffffffffffffffffffffffffffffffffffffffff166108fc600a600180600088815260200190815260200160002060040186815481101515610c0857fe5b906000526020600020015402811515610c1d57fe5b049081150290604051600060405180830381858888f19350505050158015610c49573d6000803e3d6000fd5b50600060016000858152602001908152602001600020600801600083815260200190815260200160002060070160006101000a81548160ff021916908315150217905550610c9f565b8080600101915050610ab6565b505050565b60008054905090565b60008090505b6001600084815260200190815260200160002060070154811015610e9c573373ffffffffffffffffffffffffffffffffffffffff1660016000858152602001908152602001600020600801600083815260200190815260200160002060010160009054906101000a900473ffffffffffffffffffffffffffffffffffffffff1673ffffffffffffffffffffffffffffffffffffffff16148015610d8b575060016000848152602001908152602001600020600801600082815260200190815260200160002060070160009054906101000a900460ff16155b15610e8f576001600084815260200190815260200160002060010160009054906101000a900473ffffffffffffffffffffffffffffffffffffffff1673ffffffffffffffffffffffffffffffffffffffff166108fc600a600180600088815260200190815260200160002060040186815481101515610e0657fe5b906000526020600020015402811515610e1b57fe5b049081150290604051600060405180830381858888f19350505050158015610e47573d6000803e3d6000fd5b506001806000858152602001908152602001600020600801600083815260200190815260200160002060070160006101000a81548160ff021916908315150217905550610e9c565b8080600101915050610cb3565b505050565b6001600084815260200190815260200160002060010160009054906101000a900473ffffffffffffffffffffffffffffffffffffffff1673ffffffffffffffffffffffffffffffffffffffff166108fc6001600086815260200190815260200160002060040184815481101515610f1457fe5b90600052602060002001549081150290604051600060405180830381858888f19350505050158015610f4a573d6000803e3d6000fd5b50826001600085815260200190815260200160002060080160006001600087815260200190815260200160002060070154815260200190815260200160002060000181905550336001600085815260200190815260200160002060080160006001600087815260200190815260200160002060070154815260200190815260200160002060010160006101000a81548173ffffffffffffffffffffffffffffffffffffffff021916908373ffffffffffffffffffffffffffffffffffffffff16021790555081600160008581526020019081526020016000206008016000600160008781526020019081526020016000206007015481526020019081526020016000206002018190555042600160008581526020019081526020016000206008016000600160008781526020019081526020016000206007015481526020019081526020016000206003018190555060006001600085815260200190815260200160002060080160006001600087815260200190815260200160002060070154815260200190815260200160002060070160006101000a81548160ff021916908315150217905550600060016000858152602001908152602001600020600801600060016000878152602001908152602001600020600701548152602001908152602001600020600501819055508060016000858152602001908152602001600020600801600060016000878152602001908152602001600020600701548152602001908152602001600020600401908051906020019061118c929190611866565b506001600084815260200190815260200160002060070160008154809291906001019190505550505050565b60008060006001600087815260200190815260200160002060080160008681526020019081526020016000206006016000858152602001908152602001600020600001549250600160008781526020019081526020016000206008016000868152602001908152602001600020600601600085815260200190815260200160002060010160009054906101000a900473ffffffffffffffffffffffffffffffffffffffff169150600160008781526020019081526020016000206008016000868152602001908152602001600020600601600085815260200190815260200160002060020154905093509350939050565b60008090505b60016000848152602001908152602001600020600701548110156117b457816001600085815260200190815260200160002060080160008381526020019081526020016000206002015414801561133a575060016000848152602001908152602001600020600801600082815260200190815260200160002060070160009054906101000a900460ff165b156117a75760016000848152602001908152602001600020600801600082815260200190815260200160002060010160009054906101000a900473ffffffffffffffffffffffffffffffffffffffff1673ffffffffffffffffffffffffffffffffffffffff166108fc60016000868152602001908152602001600020600401848154811015156113c657fe5b90600052602060002001549081150290604051600060405180830381858888f193505050501580156113fc573d6000803e3d6000fd5b506001600084815260200190815260200160002060010160009054906101000a900473ffffffffffffffffffffffffffffffffffffffff1673ffffffffffffffffffffffffffffffffffffffff166108fc600a60018060008881526020019081526020016000206004018681548110151561147357fe5b90600052602060002001540281151561148857fe5b049081150290604051600060405180830381858888f193505050501580156114b4573d6000803e3d6000fd5b50600060016000858152602001908152602001600020600801600083815260200190815260200160002060070160006101000a81548160ff0219169083151502179055504260016000858152602001908152602001600020600801600083815260200190815260200160002060060160006001600087815260200190815260200160002060080160008581526020019081526020016000206005015481526020019081526020016000206000018190555060016000848152602001908152602001600020600801600082815260200190815260200160002060010160009054906101000a900473ffffffffffffffffffffffffffffffffffffffff16600160008581526020019081526020016000206008016000838152602001908152602001600020600601600060016000878152602001908152602001600020600801600085815260200190815260200160002060050154815260200190815260200160002060010160006101000a81548173ffffffffffffffffffffffffffffffffffffffff021916908373ffffffffffffffffffffffffffffffffffffffff160217905550600a600b600160008681526020019081526020016000206004018481548110151561167d57fe5b90600052602060002001540281151561169257fe5b04600160008581526020019081526020016000206008016000838152602001908152602001600020600601600060016000878152602001908152602001600020600801600085815260200190815260200160002060050154815260200190815260200160002060020181905550600160008481526020019081526020016000206008016000828152602001908152602001600020600501600081548092919060010191905055503360016000858152602001908152602001600020600801600083815260200190815260200160002060010160006101000a81548173ffffffffffffffffffffffffffffffffffffffff021916908373ffffffffffffffffffffffffffffffffffffffff1602179055506117b4565b80806001019150506112af565b505050565b828054828255906000526020600020908101928215611808579160200282015b828111156118075782518290805190602001906117f79291906118e6565b50916020019190600101906117d9565b5b5090506118159190611966565b5090565b828054828255906000526020600020908101928215611855579160200282015b82811115611854578251825591602001919060010190611839565b5b5090506118629190611992565b5090565b828054600181600116156101000203166002900490600052602060002090601f016020900481019282601f106118a757805160ff19168380011785556118d5565b828001600101855582156118d5579182015b828111156118d45782518255916020019190600101906118b9565b5b5090506118e29190611992565b5090565b828054600181600116156101000203166002900490600052602060002090601f016020900481019282601f1061192757805160ff1916838001178555611955565b82800160010185558215611955579182015b82811115611954578251825591602001919060010190611939565b5b5090506119629190611992565b5090565b61198f91905b8082111561198b576000818161198291906119b7565b5060010161196c565b5090565b90565b6119b491905b808211156119b0576000816000905550600101611998565b5090565b90565b50805460018160011615610100020316600290046000825580601f106119dd57506119fc565b601f0160209004906000526020600020908101906119fb9190611992565b5b50565b6000611a0b8235612276565b905092915050565b600082601f8301121515611a2657600080fd5b8135611a39611a3482612138565b61210b565b9150818183526020840193506020810190508360005b83811015611a7f5781358601611a658882611b22565b845260208401935060208301925050600181019050611a4f565b5050505092915050565b600082601f8301121515611a9c57600080fd5b8135611aaf611aaa82612160565b61210b565b91508181835260208401935060208101905083856020840282011115611ad457600080fd5b60005b83811015611b045781611aea8882611bce565b845260208401935060208301925050600181019050611ad7565b5050505092915050565b6000611b1a8235612296565b905092915050565b600082601f8301121515611b3557600080fd5b8135611b48611b4382612188565b61210b565b91508082526020830160208301858383011115611b6457600080fd5b611b6f8382846122ac565b50505092915050565b600082601f8301121515611b8b57600080fd5b8135611b9e611b99826121b4565b61210b565b91508082526020830160208301858383011115611bba57600080fd5b611bc58382846122ac565b50505092915050565b6000611bda82356122a2565b905092915050565b60008060008060008060c08789031215611bfb57600080fd5b6000611c0989828a01611b0e565b9650506020611c1a89828a01611bce565b955050604087013567ffffffffffffffff811115611c3757600080fd5b611c4389828a01611a13565b945050606087013567ffffffffffffffff811115611c6057600080fd5b611c6c89828a01611a89565b935050608087013567ffffffffffffffff811115611c8957600080fd5b611c9589828a01611a13565b92505060a087013567ffffffffffffffff811115611cb257600080fd5b611cbe89828a01611a89565b9150509295509295509295565b600060208284031215611cdd57600080fd5b6000611ceb84828501611bce565b91505092915050565b60008060408385031215611d0757600080fd5b6000611d1585828601611bce565b9250506020611d26858286016119ff565b9150509250929050565b60008060408385031215611d4357600080fd5b6000611d5185828601611bce565b9250506020611d6285828601611bce565b9150509250929050565b600080600060608486031215611d8157600080fd5b6000611d8f86828701611bce565b9350506020611da086828701611bce565b925050604084013567ffffffffffffffff811115611dbd57600080fd5b611dc986828701611b78565b9150509250925092565b600080600060608486031215611de857600080fd5b6000611df686828701611bce565b9350506020611e0786828701611bce565b9250506040611e1886828701611bce565b9150509250925092565b611e2b81612240565b82525050565b6000611e3c826121fa565b80845260208401935083602082028501611e55856121e0565b60005b84811015611e8e578383038852611e70838351611f3f565b9250611e7b82612226565b9150602088019750600181019050611e58565b508196508694505050505092915050565b6000611eaa82612205565b808452602084019350611ebc836121ed565b60005b82811015611eee57611ed2868351611f75565b611edb82612233565b9150602086019550600181019050611ebf565b50849250505092915050565b611f0381612260565b82525050565b6000611f148261221b565b808452611f288160208601602086016122bb565b611f31816122ee565b602085010191505092915050565b6000611f4a82612210565b808452611f5e8160208601602086016122bb565b611f67816122ee565b602085010191505092915050565b611f7e8161226c565b82525050565b600061010082019050611f9a600083018b611e22565b611fa7602083018a611f75565b8181036040830152611fb98189611e31565b90508181036060830152611fcd8188611e9f565b90508181036080830152611fe18187611e31565b905081810360a0830152611ff58186611e9f565b905061200460c0830185611efa565b61201160e0830184611f75565b9998505050505050505050565b60006020820190506120336000830184611f75565b92915050565b600060608201905061204e6000830186611f75565b61205b6020830185611e22565b6120686040830184611f75565b949350505050565b600061012082019050612086600083018c611f75565b612093602083018b611f75565b6120a0604083018a611f75565b81810360608301526120b28189611f09565b90506120c16080830188611f75565b81810360a08301526120d38187611f09565b90506120e260c0830186611f75565b6120ef60e0830185611f75565b6120fd610100830184611efa565b9a9950505050505050505050565b6000604051905081810181811067ffffffffffffffff8211171561212e57600080fd5b8060405250919050565b600067ffffffffffffffff82111561214f57600080fd5b602082029050602081019050919050565b600067ffffffffffffffff82111561217757600080fd5b602082029050602081019050919050565b600067ffffffffffffffff82111561219f57600080fd5b601f19601f8301169050602081019050919050565b600067ffffffffffffffff8211156121cb57600080fd5b601f19601f8301169050602081019050919050565b6000602082019050919050565b6000602082019050919050565b600081519050919050565b600081519050919050565b600081519050919050565b600081519050919050565b6000602082019050919050565b6000602082019050919050565b600073ffffffffffffffffffffffffffffffffffffffff82169050919050565b60008115159050919050565b6000819050919050565b600073ffffffffffffffffffffffffffffffffffffffff82169050919050565b60008115159050919050565b6000819050919050565b82818337600083830152505050565b60005b838110156122d95780820151818401526020810190506122be565b838111156122e8576000848401525b50505050565b6000601f19601f83011690509190505600a265627a7a72305820c950850f8292b3d5ff04072572edc7da3e8acf1cae7cfd0481cfe6c8b5fb84496c6578706572696d656e74616cf50037",
  "source": "pragma solidity ^0.4.23;\npragma experimental ABIEncoderV2;\n\ncontract Grape {\n    uint256 concertID = 0;\n\n    modifier isOwner(address user){\n        require(msg.sender == user, \"Authorization Failed\");\n        _;\n    }\n\n    modifier isTimeEnd(uint time){\n        require(time < now, \"Time is end\");\n        _;\n    }\n\n    modifier isAuction(uint256 _ticketId, uint256 _concertId){\n        require(concertList[_concertId].ticketList[_ticketId].isAuction == true, \"Not Auction\");\n        _;\n    }\n\n    struct Concert {\n        uint256 concertId;\n        address creator;\n        bool isPossibleAuction;\n        uint256 ticketTypeCounts;\n        string[] ticketName;\n        uint256[] ticketPrice;\n        string[] ticketDescription;\n        uint256[] ticketAmount;\n        uint256 ticketListCount;\n        mapping (uint256 => Ticket) ticketList;\n    }\n    \n    mapping (uint256 => Concert) concertList;\n\n    struct Ticket {\n        uint256 concertId;\n        address owner;\n        uint256 ticketType;\n        uint256 date;\n        string encryptionAuthKey;\n        uint256 ticketHistoryCount;\n        mapping (uint256 => AuctionHistory) auctionHistorys;\n        bool isAuction;\n    }\n    \n    struct AuctionHistory {\n        uint256 date;\n        address owner;\n        uint256 price;\n    }\n\n    function createConcert(bool _isPossibleAuction,\n    uint256 _ticketTypeCounts, string[] _ticketName, uint256[] _ticketPrice, string[] _ticketDescription, uint256[] _ticketAmount) \n    public payable{\n        //address foundation = 0xC39b1048d6DD7fB500A2E8F9fFFa0ca33cd4dB5a;\n        //foundation.transfer(20);\n        concertList[concertID] = (Concert(concertID, msg.sender, _isPossibleAuction, _ticketTypeCounts, _ticketName, _ticketPrice, _ticketDescription, _ticketAmount, 0));\n        concertID++;\n    }\n\n    function getConcert(uint256 _concertId) public view returns (\n        address _creator,\n        uint256 _ticketTypeCounts,\n        string[] _ticketName,\n        uint256[] _ticketPrice,\n        string[] _ticketDescription,\n        uint256[] _ticketAmount,\n        bool _isPossibleAuction,\n        uint256 _ticketListCount\n    )\n    {\n        _creator = concertList[_concertId].creator;\n        _isPossibleAuction = concertList[_concertId].isPossibleAuction;\n        _ticketListCount = concertList[_concertId].ticketListCount;\n        _ticketTypeCounts = concertList[_concertId].ticketTypeCounts;\n        _ticketName = concertList[_concertId].ticketName;\n        _ticketPrice = concertList[_concertId].ticketPrice;\n        _ticketDescription = concertList[_concertId].ticketDescription;\n        _ticketAmount = concertList[_concertId].ticketAmount;\n    }\n\n    function getconcertID() public view returns (\n        uint256 _concertID\n    ) {\n        _concertID = concertID;\n    }\n\n    function payTicekt(uint256 _concertId, uint256 _ticketType, string _encryptionAuthKey) public payable {\n        concertList[_concertId].creator.transfer(concertList[_concertId].ticketPrice[_ticketType]);\n        concertList[_concertId].ticketList[concertList[_concertId].ticketListCount].concertId = _concertId;\n        concertList[_concertId].ticketList[concertList[_concertId].ticketListCount].owner = msg.sender;\n        concertList[_concertId].ticketList[concertList[_concertId].ticketListCount].ticketType = _ticketType;\n        concertList[_concertId].ticketList[concertList[_concertId].ticketListCount].date = block.timestamp;\n        concertList[_concertId].ticketList[concertList[_concertId].ticketListCount].isAuction = false;\n        concertList[_concertId].ticketList[concertList[_concertId].ticketListCount].ticketHistoryCount = 0;\n        concertList[_concertId].ticketList[concertList[_concertId].ticketListCount].encryptionAuthKey = _encryptionAuthKey;\n        concertList[_concertId].ticketListCount++;\n    }\n\n    function getTicket(uint256 _concertId, address _owner) public view returns (\n        uint256 _ticketId,\n        uint256 _ticketType,\n        uint256 _date,\n        string _ticketName,\n        uint256 _ticketPrice,\n        string _encryptionAuthKey,\n        uint256 _ticketHistoryCount,\n        uint256 _auctionHistoryLength,\n        bool _isAuction\n    ){\n        for (uint256 i = 0; i<concertList[_concertId].ticketListCount; i++) {\n            if (concertList[_concertId].ticketList[i].owner == _owner) {\n                _ticketId = i;\n                _ticketType = concertList[_concertId].ticketList[i].ticketType;\n                _date = concertList[_concertId].ticketList[i].date;\n                _ticketName = concertList[_concertId].ticketName[concertList[_concertId].ticketList[i].ticketType];\n                _ticketPrice = concertList[_concertId].ticketPrice[concertList[_concertId].ticketList[i].ticketType];\n                _encryptionAuthKey = concertList[_concertId].ticketList[i].encryptionAuthKey;\n                _ticketHistoryCount = concertList[_concertId].ticketList[i].ticketHistoryCount;\n                _isAuction = concertList[_concertId].ticketList[i].isAuction;\n                break;\n            }\n        }\n    }\n\n    function getTicketHistory(uint256 _concertId, uint256 _ticketId, uint256 _ticketHistoryCount) returns (\n        uint256 _date,\n        address _owner,\n        uint256 _price\n    ) {\n        _date = concertList[_concertId].ticketList[_ticketId].auctionHistorys[_ticketHistoryCount].date;\n        _owner = concertList[_concertId].ticketList[_ticketId].auctionHistorys[_ticketHistoryCount].owner;\n        _price = concertList[_concertId].ticketList[_ticketId].auctionHistorys[_ticketHistoryCount].price;\n    }\n\n    function buyUsedTicket(uint256 _concertId, uint256 _ticketType) public payable {\n        for (uint256 i = 0; i < concertList[_concertId].ticketListCount; i++) {\n            if (concertList[_concertId].ticketList[i].ticketType == _ticketType && concertList[_concertId].ticketList[i].isAuction) {\n                concertList[_concertId].ticketList[i].owner.transfer(concertList[_concertId].ticketPrice[_ticketType]);\n                concertList[_concertId].creator.transfer(concertList[_concertId].ticketPrice[_ticketType] * 1 / 10);\n                concertList[_concertId].ticketList[i].isAuction = false;\n                concertList[_concertId].ticketList[i].auctionHistorys[concertList[_concertId].ticketList[i].ticketHistoryCount].date = block.timestamp;\n                concertList[_concertId].ticketList[i].auctionHistorys[concertList[_concertId].ticketList[i].ticketHistoryCount].owner = concertList[_concertId].ticketList[i].owner;\n                concertList[_concertId].ticketList[i].auctionHistorys[concertList[_concertId].ticketList[i].ticketHistoryCount].price = concertList[_concertId].ticketPrice[_ticketType] * 11 / 10;\n                concertList[_concertId].ticketList[i].ticketHistoryCount++;\n                concertList[_concertId].ticketList[i].owner = msg.sender;\n                break;\n            }\n        }\n    }\n    function sellUsedTicket(uint256 _concertId, uint256 _ticketType) public payable {\n        for (uint256 i = 0; i < concertList[_concertId].ticketListCount; i++) {\n            if (concertList[_concertId].ticketList[i].owner == msg.sender && !concertList[_concertId].ticketList[i].isAuction) {\n                concertList[_concertId].creator.transfer(concertList[_concertId].ticketPrice[_ticketType] * 1 / 10);\n                concertList[_concertId].ticketList[i].isAuction = true;\n                break;\n            }\n        }\n    }\n\n    function cancleSellUsedTicket(uint256 _concertId, uint256 _ticketType) public payable {\n        for (uint256 i = 0; i < concertList[_concertId].ticketListCount; i++) {\n            if (concertList[_concertId].ticketList[i].owner == msg.sender && concertList[_concertId].ticketList[i].isAuction) {\n                concertList[_concertId].creator.transfer(concertList[_concertId].ticketPrice[_ticketType] * 1 / 10);\n                concertList[_concertId].ticketList[i].isAuction = false;\n                break;\n            }\n        }\n    }\n}",
  "sourcePath": "/Users/Gwangmin/Documents/klaytn-web/contracts/Grape.sol",
  "compiler": {
    "name": "solc",
    "version": "0.4.24+commit.e67f0147.Emscripten.clang"
  },
  "schemaVersion": "2.0.1",
  "updatedAt": "2018-10-27T10:21:43.407Z"
}